{"contracts/Loan.sol":{"LoanMarket":{"abi":[{"inputs":[{"internalType":"address payable","name":"_feeWallet","type":"address"},{"internalType":"uint256","name":"_bronzeLoanLimit","type":"uint256"},{"internalType":"uint256","name":"_silverLoanLimit","type":"uint256"},{"internalType":"uint8","name":"_silverReqRepaid","type":"uint8"},{"internalType":"uint8","name":"_silverReqAvgScore","type":"uint8"},{"internalType":"uint8","name":"_goldReqRepaid","type":"uint8"},{"internalType":"uint8","name":"_goldReqAvgScore","type":"uint8"}],"stateMutability":"nonpayable","type":"constructor"},{"anonymous":false,"inputs":[{"indexed":true,"internalType":"uint256","name":"loanId","type":"uint256"},{"indexed":true,"internalType":"address","name":"investor","type":"address"},{"indexed":false,"internalType":"uint256","name":"grossAmount","type":"uint256"},{"indexed":false,"internalType":"uint256","name":"fee","type":"uint256"},{"indexed":false,"internalType":"uint256","name":"netAmount","type":"uint256"}],"name":"CollateralClaimed","type":"event"},{"anonymous":false,"inputs":[{"indexed":true,"internalType":"uint256","name":"loanId","type":"uint256"},{"indexed":true,"internalType":"address","name":"borrower","type":"address"},{"indexed":false,"internalType":"uint256","name":"amount","type":"uint256"}],"name":"CollateralWithdrawn","type":"event"},{"anonymous":false,"inputs":[{"indexed":true,"internalType":"uint256","name":"loanId","type":"uint256"},{"indexed":false,"internalType":"uint256","name":"defaultTimestamp","type":"uint256"}],"name":"Defaulted","type":"event"},{"anonymous":false,"inputs":[{"indexed":true,"internalType":"uint256","name":"loanId","type":"uint256"},{"indexed":true,"internalType":"address","name":"investor","type":"address"},{"indexed":false,"internalType":"uint256","name":"amount","type":"uint256"}],"name":"Funded","type":"event"},{"anonymous":false,"inputs":[{"indexed":true,"internalType":"uint256","name":"loanId","type":"uint256"},{"indexed":true,"internalType":"address","name":"investor","type":"address"},{"indexed":false,"internalType":"uint256","name":"amount","type":"uint256"}],"name":"InvestorWithdraw","type":"event"},{"anonymous":false,"inputs":[{"indexed":true,"internalType":"uint256","name":"loanId","type":"uint256"},{"indexed":true,"internalType":"address","name":"borrower","type":"address"}],"name":"LoanCancelled","type":"event"},{"anonymous":false,"inputs":[{"indexed":true,"internalType":"uint256","name":"loanId","type":"uint256"},{"indexed":true,"internalType":"address","name":"borrower","type":"address"},{"indexed":false,"internalType":"uint256","name":"amountRequested","type":"uint256"}],"name":"LoanCreated","type":"event"},{"anonymous":false,"inputs":[{"indexed":true,"internalType":"uint256","name":"loanId","type":"uint256"},{"indexed":false,"internalType":"uint256","name":"amount","type":"uint256"}],"name":"RepaymentMade","type":"event"},{"anonymous":false,"inputs":[{"indexed":true,"internalType":"uint256","name":"loanId","type":"uint256"},{"indexed":true,"internalType":"address","name":"investor","type":"address"},{"indexed":false,"internalType":"uint8","name":"score","type":"uint8"}],"name":"ScoreLeft","type":"event"},{"anonymous":false,"inputs":[{"indexed":true,"internalType":"address","name":"owner","type":"address"}],"name":"TierRequirementsUpdated","type":"event"},{"anonymous":false,"inputs":[{"indexed":true,"internalType":"uint256","name":"loanId","type":"uint256"},{"indexed":false,"internalType":"uint256","name":"amount","type":"uint256"}],"name":"WithdrawnByBorrower","type":"event"},{"inputs":[{"internalType":"address","name":"borrower","type":"address"}],"name":"averageScoreOfBorrower","outputs":[{"internalType":"uint256","name":"avgTimes100","type":"uint256"}],"stateMutability":"view","type":"function"},{"inputs":[{"internalType":"address","name":"","type":"address"}],"name":"borrowerProfiles","outputs":[{"internalType":"uint256","name":"repaidLoansCount","type":"uint256"},{"internalType":"uint256","name":"weightedScoreSum","type":"uint256"},{"internalType":"uint256","name":"totalAmountRepaid","type":"uint256"}],"stateMutability":"view","type":"function"},{"inputs":[],"name":"bronzeLoanLimit","outputs":[{"internalType":"uint256","name":"","type":"uint256"}],"stateMutability":"view","type":"function"},{"inputs":[{"internalType":"uint256","name":"loanId","type":"uint256"}],"name":"cancelFundedLoan","outputs":[],"stateMutability":"nonpayable","type":"function"},{"inputs":[{"internalType":"uint256","name":"loanId","type":"uint256"}],"name":"cancelLoan","outputs":[],"stateMutability":"nonpayable","type":"function"},{"inputs":[{"internalType":"uint256","name":"loanId","type":"uint256"}],"name":"checkDefault","outputs":[],"stateMutability":"nonpayable","type":"function"},{"inputs":[{"internalType":"uint256","name":"loanId","type":"uint256"},{"internalType":"uint8","name":"score","type":"uint8"}],"name":"claimCollateral","outputs":[],"stateMutability":"nonpayable","type":"function"},{"inputs":[{"internalType":"uint256","name":"amountRequested","type":"uint256"},{"internalType":"uint256","name":"interestBps","type":"uint256"},{"internalType":"uint256","name":"durationSecs","type":"uint256"},{"internalType":"uint256","name":"fundingDeadline","type":"uint256"},{"internalType":"uint256","name":"collateralAmount","type":"uint256"}],"name":"createLoan","outputs":[{"internalType":"uint256","name":"loanId","type":"uint256"}],"stateMutability":"payable","type":"function"},{"inputs":[],"name":"feeWallet","outputs":[{"internalType":"address payable","name":"","type":"address"}],"stateMutability":"view","type":"function"},{"inputs":[{"internalType":"uint256","name":"loanId","type":"uint256"}],"name":"fundLoan","outputs":[],"stateMutability":"payable","type":"function"},{"inputs":[{"internalType":"address","name":"borrower","type":"address"}],"name":"getBorrowerTier","outputs":[{"internalType":"enum LoanMarket.RiskTier","name":"","type":"uint8"}],"stateMutability":"view","type":"function"},{"inputs":[],"name":"getLoanCount","outputs":[{"internalType":"uint256","name":"","type":"uint256"}],"stateMutability":"view","type":"function"},{"inputs":[],"name":"goldReqAvgScorePercent","outputs":[{"internalType":"uint8","name":"","type":"uint8"}],"stateMutability":"view","type":"function"},{"inputs":[],"name":"goldReqRepaid","outputs":[{"internalType":"uint8","name":"","type":"uint8"}],"stateMutability":"view","type":"function"},{"inputs":[{"internalType":"uint256","name":"","type":"uint256"}],"name":"loans","outputs":[{"internalType":"address","name":"borrower","type":"address"},{"internalType":"uint256","name":"amountRequested","type":"uint256"},{"internalType":"uint256","name":"amountFunded","type":"uint256"},{"internalType":"uint256","name":"interestBps","type":"uint256"},{"internalType":"uint256","name":"durationSecs","type":"uint256"},{"internalType":"uint256","name":"fundingDeadline","type":"uint256"},{"internalType":"enum LoanMarket.Status","name":"status","type":"uint8"},{"internalType":"uint256","name":"startTimestamp","type":"uint256"},{"internalType":"uint256","name":"totalRepayment","type":"uint256"},{"internalType":"address","name":"investor","type":"address"},{"internalType":"uint8","name":"score","type":"uint8"},{"internalType":"uint256","name":"defaultTimestamp","type":"uint256"},{"internalType":"uint256","name":"collateralAmount","type":"uint256"},{"internalType":"bool","name":"collateralClaimed","type":"bool"}],"stateMutability":"view","type":"function"},{"inputs":[],"name":"owner","outputs":[{"internalType":"address","name":"","type":"address"}],"stateMutability":"view","type":"function"},{"inputs":[{"internalType":"uint256","name":"loanId","type":"uint256"}],"name":"repay","outputs":[],"stateMutability":"payable","type":"function"},{"inputs":[{"internalType":"uint256","name":"_bronzeLoanLimit","type":"uint256"},{"internalType":"uint256","name":"_silverLoanLimit","type":"uint256"},{"internalType":"uint8","name":"_silverReqRepaid","type":"uint8"},{"internalType":"uint8","name":"_silverReqAvgScore","type":"uint8"},{"internalType":"uint8","name":"_goldReqRepaid","type":"uint8"},{"internalType":"uint8","name":"_goldReqAvgScore","type":"uint8"}],"name":"setTierRequirements","outputs":[],"stateMutability":"nonpayable","type":"function"},{"inputs":[],"name":"silverLoanLimit","outputs":[{"internalType":"uint256","name":"","type":"uint256"}],"stateMutability":"view","type":"function"},{"inputs":[],"name":"silverReqAvgScorePercent","outputs":[{"internalType":"uint8","name":"","type":"uint8"}],"stateMutability":"view","type":"function"},{"inputs":[],"name":"silverReqRepaid","outputs":[{"internalType":"uint8","name":"","type":"uint8"}],"stateMutability":"view","type":"function"},{"inputs":[{"internalType":"uint256","name":"loanId","type":"uint256"}],"name":"withdrawAsBorrower","outputs":[],"stateMutability":"nonpayable","type":"function"},{"inputs":[{"internalType":"uint256","name":"loanId","type":"uint256"},{"internalType":"uint8","name":"score","type":"uint8"}],"name":"withdrawInvestorShare","outputs":[],"stateMutability":"nonpayable","type":"function"},{"inputs":[{"internalType":"uint256","name":"","type":"uint256"}],"name":"withdrawableOf","outputs":[{"internalType":"uint256","name":"","type":"uint256"}],"stateMutability":"view","type":"function"},{"stateMutability":"payable","type":"receive"}],"evm":{"bytecode":{"linkReferences":{},"object":"6080346200010657601f62001f2338819003918201601f19168301916001600160401b038311848410176200010b5780849260e094604052833981010312620001065780516001600160a01b0381169190829003620001065760ff602082015163ff000000604084015194620000786060860162000121565b95620000876080870162000121565b93620000a460c06200009c60a08a0162000121565b980162000121565b9260018060a01b03198060015416906001600255339060005416176000551760015560035560045561ff0062ff00006005549260101b169660081b169063ffffffff1916179160181b161791161717600555604051611df29081620001318239f35b600080fd5b634e487b7160e01b600052604160045260246000fd5b519060ff82168203620001065756fe608080604052600436101561005f575b50361561001b57600080fd5b606460405162461bcd60e51b815260206004820152602060248201527f5573652066756e644c6f616e286c6f616e49642920746f2073656e64204554486044820152fd5b60003560e01c9081630e1d4753146118a9575080630e3b671c1461179f57806314c2b2e21461178157806331798f611461174a578063371fd8e6146114835780634a86cc8d146114435780634d8a2e15146112bf57806352196812146112a15780635f76cdfd14610f455780636949000c14610ee2578063759135a114610ec4578063846b909a14610d645780638da5cb5b14610d3b5780639f91912414610b97578063a1c2783514610b73578063b7f0b7ee146107c2578063bdbfa3de146106f5578063c88bb8c0146106d1578063cf2b4cbc1461030e578063d1fdb3e8146102e2578063d6f91efd146102c1578063da259955146102a3578063e1ec3c68146101a25763f25f4b5614610174573861000f565b3461019d57600036600319011261019d576001546040516001600160a01b039091168152602090f35b600080fd5b3461019d57602036600319011261019d5760043560075481101561019d576101c9906118da565b5060018060a01b038154166001820154600283015492600381015493600482015460058301549560ff60068501541691600785015497600886015491600987015493600a8801549660ff600c600b8b01549a015416996040519b8c5260208c015260408b015260608a0152608089015260a0880152600683101561028d576101c09760ff9360c089015260e088015261010087015260018060a01b03811661012087015260a01c1661014085015261016084015261018083015215156101a0820152f35b634e487b7160e01b600052602160045260246000fd5b3461019d57600036600319011261019d576020600454604051908152f35b3461019d57600036600319011261019d57602060ff60055416604051908152f35b3461019d57602036600319011261019d5760043560005260086020526020604060002054604051908152f35b60a036600319011261019d5760648035906084359061032c33611cee565b600381101561028d578061067c57506003546004351161063a575b600435156105f857428311156105b65781340361057e5750604051916101c0830183811067ffffffffffffffff821117610568576040523383526004356020840152604083019060008252606084019060243582526080850193604435855260a08601918252600060c0870152600060e0870152600061010087015260006101208701526000610140870152600061016087015261018086015260006101a0860152600754680100000000000000008110156105685780600161040d92016007556118da565b94909461055257855185546001600160a01b03199081166001600160a01b0392831617875560208801516001880155945160028701559251600386015551600485015551600584015560c084015192600680820193919085101561028d576104cf6101a093600c9360ff96871998888a835416911617905560e08901516007850155610100890151600885015560098401916101208a01511690825416178155856101408901511681549060ff60a01b9060a01b169060ff60a01b1916179055565b610160860151600a820155610180860151600b820155019301511515918354169116179055600754600019810190811161053c576020906040516004358152817f8910ba13a55695f056e224bbbc6b65d866b12a8c2fbdf387fb853a1cca298cd7843393a3604051908152f35b634e487b7160e01b600052601160045260246000fd5b634e487b7160e01b600052600060045260246000fd5b634e487b7160e01b600052604160045260246000fd5b60405162461bcd60e51b8152602060048201526013602482015272086ded8d8c2e8cae4c2d840dad2e6dac2e8c6d606b1b6044820152fd5b60405162461bcd60e51b815260206004820152601e60248201527f446561646c696e65206d75737420626520696e207468652066757475726500006044820152fd5b60405162461bcd60e51b815260206004820152601d60248201527f416d6f756e74206d7573742062652067726561746572207468616e20300000006044820152fd5b60405162461bcd60e51b815260206004820152601a60248201527f42726f6e7a652074696572206c696d69742065786365656465640000000000006044820152fd5b6001036103475760045460043511156103475760405162461bcd60e51b815260206004820152601a60248201527f53696c7665722074696572206c696d69742065786365656465640000000000006044820152fd5b3461019d57600036600319011261019d57602060ff60055460081c16604051908152f35b3461019d57602036600319011261019d5760043561071760016002541461196f565b60028055610724816118da565b5080546001600160a01b039190821661073e3382146119bb565b60068201805460ff811690600682101561028d5761075e60059215611938565b60ff1916179055600b820154806107a1575b50505416907f533b2d8d57dc3b3d1c1bfd952e6355a9b573b6b9cccc5f554157003f733bb514600080a36001600255005b6000808080936107bb955af16107b5611a3c565b50611b5b565b8380610770565b3461019d57604036600319011261019d576004356107de6118ca565b906001906107ef826002541461196f565b600280556107fc816118da565b506009810180549092916001600160a01b039161081c9083163314611ba7565b60ff600682015416600681101561028d57600303610b3c578185541615610b02578260005260209160088352604060002054918215610ac757868101928354866000526008865260006040812055808211600014610a815761087e908261192b565b600a810290808204600a149015171561053c57600080806108a46064829504809661192b565b94878d54165af16108b3611a3c565b5015610a4f576108d3600080808085335af16108cd611a3c565b50611be2565b604051908152857f0afeafe87af56d204cca28eefeec305c8d8bcb1907103f969f87e9a978745c29863393a35b60ff8816958787101580610a44575b156109ff5760ff815460a01c166109ba577f7514ebcac1feb55cc5d1869533571ccd5971af19a7428bb57c1f780879eec3d995969798610964919081549060ff60a01b9060a01b169060ff60a01b1916179055565b5416600052600682526109aa60026040600020926109828454611c1c565b845561098f815489611b28565b61099d8a8601918254611a2f565b9055549201918254611a2f565b90556040519384523393a3600255005b60405162461bcd60e51b815260048101869052601b60248201527f53636f72652068617320616c7265616479206265656e206c65667400000000006044820152606490fd5b60405162461bcd60e51b815260048101869052601d60248201527f53636f7265206d757374206265206265747765656e203120616e6420350000006044820152606490fd5b50600587111561090f565b60405162461bcd60e51b815260048101869052600a6024820152691199594819985a5b195960b21b6044820152606490fd5b50610a96600080808085335af16108cd611a3c565b604051908152857f0afeafe87af56d204cca28eefeec305c8d8bcb1907103f969f87e9a978745c29863393a3610900565b60405162461bcd60e51b81526004810185905260136024820152724e6f7468696e6720746f20776974686472617760681b6044820152606490fd5b60405162461bcd60e51b8152602060048201526012602482015271119959481dd85b1b195d081b9bdd081cd95d60721b6044820152606490fd5b60405162461bcd60e51b815260206004820152600f60248201526e131bd85b881b9bdd081c995c185a59608a1b6044820152606490fd5b3461019d57600036600319011261019d57602060ff60055460181c16604051908152f35b3461019d57602036600319011261019d57600435610bb960016002541461196f565b60028055610bc6816118da565b5060098101546001600160a01b0391908216610be3338214611ba7565b600682019081549160ff8316600681101561028d576001610c0491146119f6565b610c176007850154600486015490611a2f565b421115610cdd5760008093928193926005839460ff19161790556002860154905af1610c41611a3c565b5015610c9f57600b81015480610c82575b505416907f533b2d8d57dc3b3d1c1bfd952e6355a9b573b6b9cccc5f554157003f733bb514600080a36001600255005b6000808080610c9994878754165af16107b5611a3c565b83610c52565b60405162461bcd60e51b8152602060048201526016602482015275125b9d995cdd1bdc881c99599d5b990819985a5b195960521b6044820152606490fd5b60405162461bcd60e51b815260206004820152603060248201527f426f72726f7765722773207769746864726177616c20706572696f642068617360448201526f081b9bdd08195e1c1a5c9959081e595d60821b6064820152608490fd5b3461019d57600036600319011261019d576000546040516001600160a01b039091168152602090f35b602036600319011261019d57600435610d7c816118da565b5060068101805460ff8116600681101561028d57610d9a9015611938565b60058301544211610e8d5760018301543403610e575760098301805491906001600160a01b038316610e215760019234600287015533906bffffffffffffffffffffffff60a01b1617905560ff1916179055600742910155604051903482527f38c48552690c96ec2872092ac1db6c19fb59f5a8c5b49bbf41ed4886d0ca692660203393a3005b60405162461bcd60e51b815260206004820152600e60248201526d105b1c9958591e48199d5b99195960921b6044820152606490fd5b60405162461bcd60e51b815260206004820152600e60248201526d135d5cdd08199d5b9908199d5b1b60921b6044820152606490fd5b60405162461bcd60e51b815260206004820152600f60248201526e111958591b1a5b99481c185cdcd959608a1b6044820152606490fd5b3461019d57602036600319011261019d57610ee0600435611a87565b005b3461019d57602036600319011261019d576004356001600160a01b0381169081900361019d57600052600660205260406000208054610f4160026001840154930154604051938493846040919493926060820195825260208201520152565b0390f35b3461019d57604036600319011261019d57600435610f616118ca565b90610f7060016002541461196f565b60028055610f7d81611a87565b610f86816118da565b506009810180546001600160a01b0394919290610fa69086163314611ba7565b60ff600682015416600681101561028d5760040361126c57600c810180549160ff831661123557600b01549182156112005760019060ff19161790556005810281810460050361053c5760649004610ffe818361192b565b9560008080808585600154165af1611014611a3c565b50156111c55760008080808a858a54165af161102e611a3c565b50156111805785917f90a49cc0ffe370f13cdb2e8c2f3f91aeb86bae3a6aa0e060da5fb4a9b91cde999161107e8754996040519384938c1697846040919493926060820195825260208201520152565b0390a360ff811693600185101580611175575b156111305760a01c60ff166110eb57815460ff60a01b191660a09190911b60ff60a01b161790556040519182527f7514ebcac1feb55cc5d1869533571ccd5971af19a7428bb57c1f780879eec3d960203393a36001600255005b60405162461bcd60e51b815260206004820152601b60248201527f53636f72652068617320616c7265616479206265656e206c65667400000000006044820152606490fd5b60405162461bcd60e51b815260206004820152601d60248201527f53636f7265206d757374206265206265747765656e203120616e6420350000006044820152606490fd5b506005851115611091565b60405162461bcd60e51b815260206004820152601860248201527f496e766573746f72207472616e73666572206661696c656400000000000000006044820152606490fd5b60405162461bcd60e51b8152602060048201526013602482015272119959481d1c985b9cd9995c8819985a5b1959606a1b6044820152606490fd5b60405162461bcd60e51b815260206004820152600d60248201526c139bc818dbdb1b185d195c985b609a1b6044820152606490fd5b60405162461bcd60e51b815260206004820152600f60248201526e105b1c9958591e4818db185a5b5959608a1b6044820152606490fd5b60405162461bcd60e51b815260206004820152600d60248201526c139bdd08191959985d5b1d1959609a1b6044820152606490fd5b3461019d57600036600319011261019d576020600754604051908152f35b3461019d57602036600319011261019d5760043560026112e2600182541461196f565b8080556112ee826118da565b509161130460018060a01b0384541633146119bb565b6006830180549360ff8516600681101561028d57600161132491146119f6565b6113376007820154600483015490611a2f565b42116113fe578301549384156113cd5760ff191683179055600080808086335af1611360611a3c565b5015611396577f69ce060f535737417b4a4ebb86ae7a865885c5c1e8106f7ed0b8bd9c52641bc66020600194604051908152a255005b60405162461bcd60e51b815260206004820152600f60248201526e151c985b9cd9995c8819985a5b1959608a1b6044820152606490fd5b60405162461bcd60e51b8152602060048201526009602482015268139bc8185b5bdd5b9d60ba1b6044820152606490fd5b60405162461bcd60e51b815260206004820152601a60248201527f576974686472617720706572696f6420686173207061737365640000000000006044820152606490fd5b3461019d57602036600319011261019d576004356001600160a01b038116810361019d5761147090611cee565b604051600382101561028d576020918152f35b60208060031936011261019d57600435906114a260016002541461196f565b600280556114af826118da565b5080546001600160a01b03906114c890821633146119bb565b600682019060ff825416600681101561028d57600203611710576114f56007840154600485015490611a2f565b42116116cb5761150485611a87565b611524600184015461271061151d600387015483611b28565b0490611a2f565b928334106116995783600882015560ff1992600384825416179055856000526008855283604060002055600b810192835490816115ee575b505050505080341161159a575b907fd3337f372235c0c137836a45251cd21fba324e7ef27c7acc5ac12451491793b991604051908152a26001600255005b60008080806115a9853461192b565b335af16115b4611a3c565b506115695760405162461bcd60e51b815260048101839052600d60248201526c1499599d5b990819985a5b1959609a1b6044820152606490fd5b600c830190815460ff81166116545760008080808c978e9a9760017f7c5e5cb62e5ed3caf3764e4b0afedfedef533e27809d43367799787ad2abcd419b9861163f9816179055335af16107b5611a3c565b54169354604051908152a3838080808061155c565b60405162461bcd60e51b8152600481018a9052601a60248201527f436f6c6c61746572616c20616c72656164792068616e646c65640000000000006044820152606490fd5b60405162461bcd60e51b815260048101869052600a60248201526909cdee840cadcdeeaced60b31b6044820152606490fd5b60405162461bcd60e51b815260048101859052601b60248201527f52657061796d656e7420706572696f64206861732070617373656400000000006044820152606490fd5b60405162461bcd60e51b81526004810185905260126024820152714c6f616e206973206e6f742061637469766560701b6044820152606490fd5b3461019d57602036600319011261019d576004356001600160a01b038116810361019d57611779602091611c2b565b604051908152f35b3461019d57600036600319011261019d576020600354604051908152f35b3461019d5760c036600319011261019d5760443560ff8116810361019d5760643560ff8116810361019d576084359060ff821680920361019d5760a43560ff8116810361019d576000546001600160a01b0316330361185a5763ff0000009060043560035560243560045561ff0062ff00006005549260101b169560081b169063ffffffff1916179160181b16171717600555337fa0c5dab9b76807b86d9a9e4dbbea25e079db4c633b14e9312484433e4de86ff1600080a2005b60405162461bcd60e51b815260206004820152602160248201527f4f6e6c79206f776e65722063616e2063616c6c20746869732066756e6374696f6044820152603760f91b6064820152608490fd5b3461019d57600036600319011261019d5760209060ff60055460101c168152f35b6024359060ff8216820361019d57565b60075481101561191557600d906007600052027fa66cc928b5edb82af9bd49922954155ab7b0942694bea4ce44661d9a8736c6880190600090565b634e487b7160e01b600052603260045260246000fd5b9190820391821161053c57565b1561193f57565b60405162461bcd60e51b81526020600482015260086024820152672737ba1037b832b760c11b6044820152606490fd5b1561197657565b60405162461bcd60e51b815260206004820152601f60248201527f5265656e7472616e637947756172643a207265656e7472616e742063616c6c006044820152606490fd5b156119c257565b60405162461bcd60e51b815260206004820152600c60248201526b2737ba103137b93937bbb2b960a11b6044820152606490fd5b156119fd57565b60405162461bcd60e51b815260206004820152600a602482015269139bdd08199d5b99195960b21b6044820152606490fd5b9190820180921161053c57565b3d15611a825767ffffffffffffffff903d8281116105685760405192601f8201601f19908116603f01168401908111848210176105685760405282523d6000602084013e565b606090565b611a90816118da565b5060068101805460ff8116600681101561028d5760021480611b0d575b80611b01575b611abe575b50505050565b60049060ff1916179055600a429101557f84908fca714735411d4553ddd185a4d6fdc25fda2d15662153ef18a8ad6099b46020604051428152a238808080611ab8565b50600a83015415611ab3565b50611b216007840154600485015490611a2f565b4211611aad565b8181029291811591840414171561053c57565b8115611b45570490565b634e487b7160e01b600052601260045260246000fd5b15611b6257565b60405162461bcd60e51b815260206004820152601860248201527f436f6c6c61746572616c20726566756e64206661696c656400000000000000006044820152606490fd5b15611bae57565b60405162461bcd60e51b815260206004820152600c60248201526b2737ba1034b73b32b9ba37b960a11b6044820152606490fd5b15611be957565b60405162461bcd60e51b815260206004820152600b60248201526a14d95b990819985a5b195960aa1b6044820152606490fd5b600019811461053c5760010190565b600754600091829190825b828110611c6c575050508015611c655760648202918083046064149015171561053c57611c6291611b3b565b90565b5050600090565b611c75816118da565b50546001600160a01b0383811691161480611cd2575b611c9e575b611c9990611c1c565b611c36565b9293611cca611cc4611c999260ff6009611cb7896118da565b50015460a01c1690611a2f565b95611c1c565b939050611c90565b5060ff6009611ce0836118da565b50015460a01c161515611c8b565b6001600160a01b0316600090815260066020526040812080549081158015611db0575b611dab57600181015490601482029180830460141490151715611d975760020154611d3b91611b3b565b6005549160ff831681101580611d88575b611d7f5760ff8360081c1611159182611d6f575b5050611d695790565b50600190565b60181c60ff161090503880611d60565b50505050600290565b5060ff8360101c168211611d4c565b634e487b7160e01b84526011600452602484fd5b505090565b50600281015415611d1156fea2646970667358221220f3a176b964e0c3c4372e197245f99f222f22deb0ae9a6a44124762ca070bb38364736f6c63430008130033","opcodes":"PUSH1 0x80 CALLVALUE PUSH3 0x106 JUMPI PUSH1 0x1F PUSH3 0x1F23 CODESIZE DUP2 SWAP1 SUB SWAP2 DUP3 ADD PUSH1 0x1F NOT AND DUP4 ADD SWAP2 PUSH1 0x1 PUSH1 0x1 PUSH1 0x40 SHL SUB DUP4 GT DUP5 DUP5 LT OR PUSH3 0x10B JUMPI DUP1 DUP5 SWAP3 PUSH1 0xE0 SWAP5 PUSH1 0x40 MSTORE DUP4 CODECOPY DUP2 ADD SUB SLT PUSH3 0x106 JUMPI DUP1 MLOAD PUSH1 0x1 PUSH1 0x1 PUSH1 0xA0 SHL SUB DUP2 AND SWAP2 SWAP1 DUP3 SWAP1 SUB PUSH3 0x106 JUMPI PUSH1 0xFF PUSH1 0x20 DUP3 ADD MLOAD PUSH4 0xFF000000 PUSH1 0x40 DUP5 ADD MLOAD SWAP5 PUSH3 0x78 PUSH1 0x60 DUP7 ADD PUSH3 0x121 JUMP JUMPDEST SWAP6 PUSH3 0x87 PUSH1 0x80 DUP8 ADD PUSH3 0x121 JUMP JUMPDEST SWAP4 PUSH3 0xA4 PUSH1 0xC0 PUSH3 0x9C PUSH1 0xA0 DUP11 ADD PUSH3 0x121 JUMP JUMPDEST SWAP9 ADD PUSH3 0x121 JUMP JUMPDEST SWAP3 PUSH1 0x1 DUP1 PUSH1 0xA0 SHL SUB NOT DUP1 PUSH1 0x1 SLOAD AND SWAP1 PUSH1 0x1 PUSH1 0x2 SSTORE CALLER SWAP1 PUSH1 0x0 SLOAD AND OR PUSH1 0x0 SSTORE OR PUSH1 0x1 SSTORE PUSH1 0x3 SSTORE PUSH1 0x4 SSTORE PUSH2 0xFF00 PUSH3 0xFF0000 PUSH1 0x5 SLOAD SWAP3 PUSH1 0x10 SHL AND SWAP7 PUSH1 0x8 SHL AND SWAP1 PUSH4 0xFFFFFFFF NOT AND OR SWAP2 PUSH1 0x18 SHL AND OR SWAP2 AND OR OR PUSH1 0x5 SSTORE PUSH1 0x40 MLOAD PUSH2 0x1DF2 SWAP1 DUP2 PUSH3 0x131 DUP3 CODECOPY RETURN JUMPDEST PUSH1 0x0 DUP1 REVERT JUMPDEST PUSH4 0x4E487B71 PUSH1 0xE0 SHL PUSH1 0x0 MSTORE PUSH1 0x41 PUSH1 0x4 MSTORE PUSH1 0x24 PUSH1 0x0 REVERT JUMPDEST MLOAD SWAP1 PUSH1 0xFF DUP3 AND DUP3 SUB PUSH3 0x106 JUMPI JUMP INVALID PUSH1 0x80 DUP1 PUSH1 0x40 MSTORE PUSH1 0x4 CALLDATASIZE LT ISZERO PUSH2 0x5F JUMPI JUMPDEST POP CALLDATASIZE ISZERO PUSH2 0x1B JUMPI PUSH1 0x0 DUP1 REVERT JUMPDEST PUSH1 0x64 PUSH1 0x40 MLOAD PUSH3 0x461BCD PUSH1 0xE5 SHL DUP2 MSTORE PUSH1 0x20 PUSH1 0x4 DUP3 ADD MSTORE PUSH1 0x20 PUSH1 0x24 DUP3 ADD MSTORE PUSH32 0x5573652066756E644C6F616E286C6F616E49642920746F2073656E6420455448 PUSH1 0x44 DUP3 ADD MSTORE REVERT JUMPDEST PUSH1 0x0 CALLDATALOAD PUSH1 0xE0 SHR SWAP1 DUP2 PUSH4 0xE1D4753 EQ PUSH2 0x18A9 JUMPI POP DUP1 PUSH4 0xE3B671C EQ PUSH2 0x179F JUMPI DUP1 PUSH4 0x14C2B2E2 EQ PUSH2 0x1781 JUMPI DUP1 PUSH4 0x31798F61 EQ PUSH2 0x174A JUMPI DUP1 PUSH4 0x371FD8E6 EQ PUSH2 0x1483 JUMPI DUP1 PUSH4 0x4A86CC8D EQ PUSH2 0x1443 JUMPI DUP1 PUSH4 0x4D8A2E15 EQ PUSH2 0x12BF JUMPI DUP1 PUSH4 0x52196812 EQ PUSH2 0x12A1 JUMPI DUP1 PUSH4 0x5F76CDFD EQ PUSH2 0xF45 JUMPI DUP1 PUSH4 0x6949000C EQ PUSH2 0xEE2 JUMPI DUP1 PUSH4 0x759135A1 EQ PUSH2 0xEC4 JUMPI DUP1 PUSH4 0x846B909A EQ PUSH2 0xD64 JUMPI DUP1 PUSH4 0x8DA5CB5B EQ PUSH2 0xD3B JUMPI DUP1 PUSH4 0x9F919124 EQ PUSH2 0xB97 JUMPI DUP1 PUSH4 0xA1C27835 EQ PUSH2 0xB73 JUMPI DUP1 PUSH4 0xB7F0B7EE EQ PUSH2 0x7C2 JUMPI DUP1 PUSH4 0xBDBFA3DE EQ PUSH2 0x6F5 JUMPI DUP1 PUSH4 0xC88BB8C0 EQ PUSH2 0x6D1 JUMPI DUP1 PUSH4 0xCF2B4CBC EQ PUSH2 0x30E JUMPI DUP1 PUSH4 0xD1FDB3E8 EQ PUSH2 0x2E2 JUMPI DUP1 PUSH4 0xD6F91EFD EQ PUSH2 0x2C1 JUMPI DUP1 PUSH4 0xDA259955 EQ PUSH2 0x2A3 JUMPI DUP1 PUSH4 0xE1EC3C68 EQ PUSH2 0x1A2 JUMPI PUSH4 0xF25F4B56 EQ PUSH2 0x174 JUMPI CODESIZE PUSH2 0xF JUMP JUMPDEST CALLVALUE PUSH2 0x19D JUMPI PUSH1 0x0 CALLDATASIZE PUSH1 0x3 NOT ADD SLT PUSH2 0x19D JUMPI PUSH1 0x1 SLOAD PUSH1 0x40 MLOAD PUSH1 0x1 PUSH1 0x1 PUSH1 0xA0 SHL SUB SWAP1 SWAP2 AND DUP2 MSTORE PUSH1 0x20 SWAP1 RETURN JUMPDEST PUSH1 0x0 DUP1 REVERT JUMPDEST CALLVALUE PUSH2 0x19D JUMPI PUSH1 0x20 CALLDATASIZE PUSH1 0x3 NOT ADD SLT PUSH2 0x19D JUMPI PUSH1 0x4 CALLDATALOAD PUSH1 0x7 SLOAD DUP2 LT ISZERO PUSH2 0x19D JUMPI PUSH2 0x1C9 SWAP1 PUSH2 0x18DA JUMP JUMPDEST POP PUSH1 0x1 DUP1 PUSH1 0xA0 SHL SUB DUP2 SLOAD AND PUSH1 0x1 DUP3 ADD SLOAD PUSH1 0x2 DUP4 ADD SLOAD SWAP3 PUSH1 0x3 DUP2 ADD SLOAD SWAP4 PUSH1 0x4 DUP3 ADD SLOAD PUSH1 0x5 DUP4 ADD SLOAD SWAP6 PUSH1 0xFF PUSH1 0x6 DUP6 ADD SLOAD AND SWAP2 PUSH1 0x7 DUP6 ADD SLOAD SWAP8 PUSH1 0x8 DUP7 ADD SLOAD SWAP2 PUSH1 0x9 DUP8 ADD SLOAD SWAP4 PUSH1 0xA DUP9 ADD SLOAD SWAP7 PUSH1 0xFF PUSH1 0xC PUSH1 0xB DUP12 ADD SLOAD SWAP11 ADD SLOAD AND SWAP10 PUSH1 0x40 MLOAD SWAP12 DUP13 MSTORE PUSH1 0x20 DUP13 ADD MSTORE PUSH1 0x40 DUP12 ADD MSTORE PUSH1 0x60 DUP11 ADD MSTORE PUSH1 0x80 DUP10 ADD MSTORE PUSH1 0xA0 DUP9 ADD MSTORE PUSH1 0x6 DUP4 LT ISZERO PUSH2 0x28D JUMPI PUSH2 0x1C0 SWAP8 PUSH1 0xFF SWAP4 PUSH1 0xC0 DUP10 ADD MSTORE PUSH1 0xE0 DUP9 ADD MSTORE PUSH2 0x100 DUP8 ADD MSTORE PUSH1 0x1 DUP1 PUSH1 0xA0 SHL SUB DUP2 AND PUSH2 0x120 DUP8 ADD MSTORE PUSH1 0xA0 SHR AND PUSH2 0x140 DUP6 ADD MSTORE PUSH2 0x160 DUP5 ADD MSTORE PUSH2 0x180 DUP4 ADD MSTORE ISZERO ISZERO PUSH2 0x1A0 DUP3 ADD MSTORE RETURN JUMPDEST PUSH4 0x4E487B71 PUSH1 0xE0 SHL PUSH1 0x0 MSTORE PUSH1 0x21 PUSH1 0x4 MSTORE PUSH1 0x24 PUSH1 0x0 REVERT JUMPDEST CALLVALUE PUSH2 0x19D JUMPI PUSH1 0x0 CALLDATASIZE PUSH1 0x3 NOT ADD SLT PUSH2 0x19D JUMPI PUSH1 0x20 PUSH1 0x4 SLOAD PUSH1 0x40 MLOAD SWAP1 DUP2 MSTORE RETURN JUMPDEST CALLVALUE PUSH2 0x19D JUMPI PUSH1 0x0 CALLDATASIZE PUSH1 0x3 NOT ADD SLT PUSH2 0x19D JUMPI PUSH1 0x20 PUSH1 0xFF PUSH1 0x5 SLOAD AND PUSH1 0x40 MLOAD SWAP1 DUP2 MSTORE RETURN JUMPDEST CALLVALUE PUSH2 0x19D JUMPI PUSH1 0x20 CALLDATASIZE PUSH1 0x3 NOT ADD SLT PUSH2 0x19D JUMPI PUSH1 0x4 CALLDATALOAD PUSH1 0x0 MSTORE PUSH1 0x8 PUSH1 0x20 MSTORE PUSH1 0x20 PUSH1 0x40 PUSH1 0x0 KECCAK256 SLOAD PUSH1 0x40 MLOAD SWAP1 DUP2 MSTORE RETURN JUMPDEST PUSH1 0xA0 CALLDATASIZE PUSH1 0x3 NOT ADD SLT PUSH2 0x19D JUMPI PUSH1 0x64 DUP1 CALLDATALOAD SWAP1 PUSH1 0x84 CALLDATALOAD SWAP1 PUSH2 0x32C CALLER PUSH2 0x1CEE JUMP JUMPDEST PUSH1 0x3 DUP2 LT ISZERO PUSH2 0x28D JUMPI DUP1 PUSH2 0x67C JUMPI POP PUSH1 0x3 SLOAD PUSH1 0x4 CALLDATALOAD GT PUSH2 0x63A JUMPI JUMPDEST PUSH1 0x4 CALLDATALOAD ISZERO PUSH2 0x5F8 JUMPI TIMESTAMP DUP4 GT ISZERO PUSH2 0x5B6 JUMPI DUP2 CALLVALUE SUB PUSH2 0x57E JUMPI POP PUSH1 0x40 MLOAD SWAP2 PUSH2 0x1C0 DUP4 ADD DUP4 DUP2 LT PUSH8 0xFFFFFFFFFFFFFFFF DUP3 GT OR PUSH2 0x568 JUMPI PUSH1 0x40 MSTORE CALLER DUP4 MSTORE PUSH1 0x4 CALLDATALOAD PUSH1 0x20 DUP5 ADD MSTORE PUSH1 0x40 DUP4 ADD SWAP1 PUSH1 0x0 DUP3 MSTORE PUSH1 0x60 DUP5 ADD SWAP1 PUSH1 0x24 CALLDATALOAD DUP3 MSTORE PUSH1 0x80 DUP6 ADD SWAP4 PUSH1 0x44 CALLDATALOAD DUP6 MSTORE PUSH1 0xA0 DUP7 ADD SWAP2 DUP3 MSTORE PUSH1 0x0 PUSH1 0xC0 DUP8 ADD MSTORE PUSH1 0x0 PUSH1 0xE0 DUP8 ADD MSTORE PUSH1 0x0 PUSH2 0x100 DUP8 ADD MSTORE PUSH1 0x0 PUSH2 0x120 DUP8 ADD MSTORE PUSH1 0x0 PUSH2 0x140 DUP8 ADD MSTORE PUSH1 0x0 PUSH2 0x160 DUP8 ADD MSTORE PUSH2 0x180 DUP7 ADD MSTORE PUSH1 0x0 PUSH2 0x1A0 DUP7 ADD MSTORE PUSH1 0x7 SLOAD PUSH9 0x10000000000000000 DUP2 LT ISZERO PUSH2 0x568 JUMPI DUP1 PUSH1 0x1 PUSH2 0x40D SWAP3 ADD PUSH1 0x7 SSTORE PUSH2 0x18DA JUMP JUMPDEST SWAP5 SWAP1 SWAP5 PUSH2 0x552 JUMPI DUP6 MLOAD DUP6 SLOAD PUSH1 0x1 PUSH1 0x1 PUSH1 0xA0 SHL SUB NOT SWAP1 DUP2 AND PUSH1 0x1 PUSH1 0x1 PUSH1 0xA0 SHL SUB SWAP3 DUP4 AND OR DUP8 SSTORE PUSH1 0x20 DUP9 ADD MLOAD PUSH1 0x1 DUP9 ADD SSTORE SWAP5 MLOAD PUSH1 0x2 DUP8 ADD SSTORE SWAP3 MLOAD PUSH1 0x3 DUP7 ADD SSTORE MLOAD PUSH1 0x4 DUP6 ADD SSTORE MLOAD PUSH1 0x5 DUP5 ADD SSTORE PUSH1 0xC0 DUP5 ADD MLOAD SWAP3 PUSH1 0x6 DUP1 DUP3 ADD SWAP4 SWAP2 SWAP1 DUP6 LT ISZERO PUSH2 0x28D JUMPI PUSH2 0x4CF PUSH2 0x1A0 SWAP4 PUSH1 0xC SWAP4 PUSH1 0xFF SWAP7 DUP8 NOT SWAP9 DUP9 DUP11 DUP4 SLOAD AND SWAP2 AND OR SWAP1 SSTORE PUSH1 0xE0 DUP10 ADD MLOAD PUSH1 0x7 DUP6 ADD SSTORE PUSH2 0x100 DUP10 ADD MLOAD PUSH1 0x8 DUP6 ADD SSTORE PUSH1 0x9 DUP5 ADD SWAP2 PUSH2 0x120 DUP11 ADD MLOAD AND SWAP1 DUP3 SLOAD AND OR DUP2 SSTORE DUP6 PUSH2 0x140 DUP10 ADD MLOAD AND DUP2 SLOAD SWAP1 PUSH1 0xFF PUSH1 0xA0 SHL SWAP1 PUSH1 0xA0 SHL AND SWAP1 PUSH1 0xFF PUSH1 0xA0 SHL NOT AND OR SWAP1 SSTORE JUMP JUMPDEST PUSH2 0x160 DUP7 ADD MLOAD PUSH1 0xA DUP3 ADD SSTORE PUSH2 0x180 DUP7 ADD MLOAD PUSH1 0xB DUP3 ADD SSTORE ADD SWAP4 ADD MLOAD ISZERO ISZERO SWAP2 DUP4 SLOAD AND SWAP2 AND OR SWAP1 SSTORE PUSH1 0x7 SLOAD PUSH1 0x0 NOT DUP2 ADD SWAP1 DUP2 GT PUSH2 0x53C JUMPI PUSH1 0x20 SWAP1 PUSH1 0x40 MLOAD PUSH1 0x4 CALLDATALOAD DUP2 MSTORE DUP2 PUSH32 0x8910BA13A55695F056E224BBBC6B65D866B12A8C2FBDF387FB853A1CCA298CD7 DUP5 CALLER SWAP4 LOG3 PUSH1 0x40 MLOAD SWAP1 DUP2 MSTORE RETURN JUMPDEST PUSH4 0x4E487B71 PUSH1 0xE0 SHL PUSH1 0x0 MSTORE PUSH1 0x11 PUSH1 0x4 MSTORE PUSH1 0x24 PUSH1 0x0 REVERT JUMPDEST PUSH4 0x4E487B71 PUSH1 0xE0 SHL PUSH1 0x0 MSTORE PUSH1 0x0 PUSH1 0x4 MSTORE PUSH1 0x24 PUSH1 0x0 REVERT JUMPDEST PUSH4 0x4E487B71 PUSH1 0xE0 SHL PUSH1 0x0 MSTORE PUSH1 0x41 PUSH1 0x4 MSTORE PUSH1 0x24 PUSH1 0x0 REVERT JUMPDEST PUSH1 0x40 MLOAD PUSH3 0x461BCD PUSH1 0xE5 SHL DUP2 MSTORE PUSH1 0x20 PUSH1 0x4 DUP3 ADD MSTORE PUSH1 0x13 PUSH1 0x24 DUP3 ADD MSTORE PUSH19 0x86DED8D8C2E8CAE4C2D840DAD2E6DAC2E8C6D PUSH1 0x6B SHL PUSH1 0x44 DUP3 ADD MSTORE REVERT JUMPDEST PUSH1 0x40 MLOAD PUSH3 0x461BCD PUSH1 0xE5 SHL DUP2 MSTORE PUSH1 0x20 PUSH1 0x4 DUP3 ADD MSTORE PUSH1 0x1E PUSH1 0x24 DUP3 ADD MSTORE PUSH32 0x446561646C696E65206D75737420626520696E20746865206675747572650000 PUSH1 0x44 DUP3 ADD MSTORE REVERT JUMPDEST PUSH1 0x40 MLOAD PUSH3 0x461BCD PUSH1 0xE5 SHL DUP2 MSTORE PUSH1 0x20 PUSH1 0x4 DUP3 ADD MSTORE PUSH1 0x1D PUSH1 0x24 DUP3 ADD MSTORE PUSH32 0x416D6F756E74206D7573742062652067726561746572207468616E2030000000 PUSH1 0x44 DUP3 ADD MSTORE REVERT JUMPDEST PUSH1 0x40 MLOAD PUSH3 0x461BCD PUSH1 0xE5 SHL DUP2 MSTORE PUSH1 0x20 PUSH1 0x4 DUP3 ADD MSTORE PUSH1 0x1A PUSH1 0x24 DUP3 ADD MSTORE PUSH32 0x42726F6E7A652074696572206C696D6974206578636565646564000000000000 PUSH1 0x44 DUP3 ADD MSTORE REVERT JUMPDEST PUSH1 0x1 SUB PUSH2 0x347 JUMPI PUSH1 0x4 SLOAD PUSH1 0x4 CALLDATALOAD GT ISZERO PUSH2 0x347 JUMPI PUSH1 0x40 MLOAD PUSH3 0x461BCD PUSH1 0xE5 SHL DUP2 MSTORE PUSH1 0x20 PUSH1 0x4 DUP3 ADD MSTORE PUSH1 0x1A PUSH1 0x24 DUP3 ADD MSTORE PUSH32 0x53696C7665722074696572206C696D6974206578636565646564000000000000 PUSH1 0x44 DUP3 ADD MSTORE REVERT JUMPDEST CALLVALUE PUSH2 0x19D JUMPI PUSH1 0x0 CALLDATASIZE PUSH1 0x3 NOT ADD SLT PUSH2 0x19D JUMPI PUSH1 0x20 PUSH1 0xFF PUSH1 0x5 SLOAD PUSH1 0x8 SHR AND PUSH1 0x40 MLOAD SWAP1 DUP2 MSTORE RETURN JUMPDEST CALLVALUE PUSH2 0x19D JUMPI PUSH1 0x20 CALLDATASIZE PUSH1 0x3 NOT ADD SLT PUSH2 0x19D JUMPI PUSH1 0x4 CALLDATALOAD PUSH2 0x717 PUSH1 0x1 PUSH1 0x2 SLOAD EQ PUSH2 0x196F JUMP JUMPDEST PUSH1 0x2 DUP1 SSTORE PUSH2 0x724 DUP2 PUSH2 0x18DA JUMP JUMPDEST POP DUP1 SLOAD PUSH1 0x1 PUSH1 0x1 PUSH1 0xA0 SHL SUB SWAP2 SWAP1 DUP3 AND PUSH2 0x73E CALLER DUP3 EQ PUSH2 0x19BB JUMP JUMPDEST PUSH1 0x6 DUP3 ADD DUP1 SLOAD PUSH1 0xFF DUP2 AND SWAP1 PUSH1 0x6 DUP3 LT ISZERO PUSH2 0x28D JUMPI PUSH2 0x75E PUSH1 0x5 SWAP3 ISZERO PUSH2 0x1938 JUMP JUMPDEST PUSH1 0xFF NOT AND OR SWAP1 SSTORE PUSH1 0xB DUP3 ADD SLOAD DUP1 PUSH2 0x7A1 JUMPI JUMPDEST POP POP SLOAD AND SWAP1 PUSH32 0x533B2D8D57DC3B3D1C1BFD952E6355A9B573B6B9CCCC5F554157003F733BB514 PUSH1 0x0 DUP1 LOG3 PUSH1 0x1 PUSH1 0x2 SSTORE STOP JUMPDEST PUSH1 0x0 DUP1 DUP1 DUP1 SWAP4 PUSH2 0x7BB SWAP6 GAS CALL PUSH2 0x7B5 PUSH2 0x1A3C JUMP JUMPDEST POP PUSH2 0x1B5B JUMP JUMPDEST DUP4 DUP1 PUSH2 0x770 JUMP JUMPDEST CALLVALUE PUSH2 0x19D JUMPI PUSH1 0x40 CALLDATASIZE PUSH1 0x3 NOT ADD SLT PUSH2 0x19D JUMPI PUSH1 0x4 CALLDATALOAD PUSH2 0x7DE PUSH2 0x18CA JUMP JUMPDEST SWAP1 PUSH1 0x1 SWAP1 PUSH2 0x7EF DUP3 PUSH1 0x2 SLOAD EQ PUSH2 0x196F JUMP JUMPDEST PUSH1 0x2 DUP1 SSTORE PUSH2 0x7FC DUP2 PUSH2 0x18DA JUMP JUMPDEST POP PUSH1 0x9 DUP2 ADD DUP1 SLOAD SWAP1 SWAP3 SWAP2 PUSH1 0x1 PUSH1 0x1 PUSH1 0xA0 SHL SUB SWAP2 PUSH2 0x81C SWAP1 DUP4 AND CALLER EQ PUSH2 0x1BA7 JUMP JUMPDEST PUSH1 0xFF PUSH1 0x6 DUP3 ADD SLOAD AND PUSH1 0x6 DUP2 LT ISZERO PUSH2 0x28D JUMPI PUSH1 0x3 SUB PUSH2 0xB3C JUMPI DUP2 DUP6 SLOAD AND ISZERO PUSH2 0xB02 JUMPI DUP3 PUSH1 0x0 MSTORE PUSH1 0x20 SWAP2 PUSH1 0x8 DUP4 MSTORE PUSH1 0x40 PUSH1 0x0 KECCAK256 SLOAD SWAP2 DUP3 ISZERO PUSH2 0xAC7 JUMPI DUP7 DUP2 ADD SWAP3 DUP4 SLOAD DUP7 PUSH1 0x0 MSTORE PUSH1 0x8 DUP7 MSTORE PUSH1 0x0 PUSH1 0x40 DUP2 KECCAK256 SSTORE DUP1 DUP3 GT PUSH1 0x0 EQ PUSH2 0xA81 JUMPI PUSH2 0x87E SWAP1 DUP3 PUSH2 0x192B JUMP JUMPDEST PUSH1 0xA DUP2 MUL SWAP1 DUP1 DUP3 DIV PUSH1 0xA EQ SWAP1 ISZERO OR ISZERO PUSH2 0x53C JUMPI PUSH1 0x0 DUP1 DUP1 PUSH2 0x8A4 PUSH1 0x64 DUP3 SWAP6 DIV DUP1 SWAP7 PUSH2 0x192B JUMP JUMPDEST SWAP5 DUP8 DUP14 SLOAD AND GAS CALL PUSH2 0x8B3 PUSH2 0x1A3C JUMP JUMPDEST POP ISZERO PUSH2 0xA4F JUMPI PUSH2 0x8D3 PUSH1 0x0 DUP1 DUP1 DUP1 DUP6 CALLER GAS CALL PUSH2 0x8CD PUSH2 0x1A3C JUMP JUMPDEST POP PUSH2 0x1BE2 JUMP JUMPDEST PUSH1 0x40 MLOAD SWAP1 DUP2 MSTORE DUP6 PUSH32 0xAFEAFE87AF56D204CCA28EEFEEC305C8D8BCB1907103F969F87E9A978745C29 DUP7 CALLER SWAP4 LOG3 JUMPDEST PUSH1 0xFF DUP9 AND SWAP6 DUP8 DUP8 LT ISZERO DUP1 PUSH2 0xA44 JUMPI JUMPDEST ISZERO PUSH2 0x9FF JUMPI PUSH1 0xFF DUP2 SLOAD PUSH1 0xA0 SHR AND PUSH2 0x9BA JUMPI PUSH32 0x7514EBCAC1FEB55CC5D1869533571CCD5971AF19A7428BB57C1F780879EEC3D9 SWAP6 SWAP7 SWAP8 SWAP9 PUSH2 0x964 SWAP2 SWAP1 DUP2 SLOAD SWAP1 PUSH1 0xFF PUSH1 0xA0 SHL SWAP1 PUSH1 0xA0 SHL AND SWAP1 PUSH1 0xFF PUSH1 0xA0 SHL NOT AND OR SWAP1 SSTORE JUMP JUMPDEST SLOAD AND PUSH1 0x0 MSTORE PUSH1 0x6 DUP3 MSTORE PUSH2 0x9AA PUSH1 0x2 PUSH1 0x40 PUSH1 0x0 KECCAK256 SWAP3 PUSH2 0x982 DUP5 SLOAD PUSH2 0x1C1C JUMP JUMPDEST DUP5 SSTORE PUSH2 0x98F DUP2 SLOAD DUP10 PUSH2 0x1B28 JUMP JUMPDEST PUSH2 0x99D DUP11 DUP7 ADD SWAP2 DUP3 SLOAD PUSH2 0x1A2F JUMP JUMPDEST SWAP1 SSTORE SLOAD SWAP3 ADD SWAP2 DUP3 SLOAD PUSH2 0x1A2F JUMP JUMPDEST SWAP1 SSTORE PUSH1 0x40 MLOAD SWAP4 DUP5 MSTORE CALLER SWAP4 LOG3 PUSH1 0x2 SSTORE STOP JUMPDEST PUSH1 0x40 MLOAD PUSH3 0x461BCD PUSH1 0xE5 SHL DUP2 MSTORE PUSH1 0x4 DUP2 ADD DUP7 SWAP1 MSTORE PUSH1 0x1B PUSH1 0x24 DUP3 ADD MSTORE PUSH32 0x53636F72652068617320616C7265616479206265656E206C6566740000000000 PUSH1 0x44 DUP3 ADD MSTORE PUSH1 0x64 SWAP1 REVERT JUMPDEST PUSH1 0x40 MLOAD PUSH3 0x461BCD PUSH1 0xE5 SHL DUP2 MSTORE PUSH1 0x4 DUP2 ADD DUP7 SWAP1 MSTORE PUSH1 0x1D PUSH1 0x24 DUP3 ADD MSTORE PUSH32 0x53636F7265206D757374206265206265747765656E203120616E642035000000 PUSH1 0x44 DUP3 ADD MSTORE PUSH1 0x64 SWAP1 REVERT JUMPDEST POP PUSH1 0x5 DUP8 GT ISZERO PUSH2 0x90F JUMP JUMPDEST PUSH1 0x40 MLOAD PUSH3 0x461BCD PUSH1 0xE5 SHL DUP2 MSTORE PUSH1 0x4 DUP2 ADD DUP7 SWAP1 MSTORE PUSH1 0xA PUSH1 0x24 DUP3 ADD MSTORE PUSH10 0x1199594819985A5B1959 PUSH1 0xB2 SHL PUSH1 0x44 DUP3 ADD MSTORE PUSH1 0x64 SWAP1 REVERT JUMPDEST POP PUSH2 0xA96 PUSH1 0x0 DUP1 DUP1 DUP1 DUP6 CALLER GAS CALL PUSH2 0x8CD PUSH2 0x1A3C JUMP JUMPDEST PUSH1 0x40 MLOAD SWAP1 DUP2 MSTORE DUP6 PUSH32 0xAFEAFE87AF56D204CCA28EEFEEC305C8D8BCB1907103F969F87E9A978745C29 DUP7 CALLER SWAP4 LOG3 PUSH2 0x900 JUMP JUMPDEST PUSH1 0x40 MLOAD PUSH3 0x461BCD PUSH1 0xE5 SHL DUP2 MSTORE PUSH1 0x4 DUP2 ADD DUP6 SWAP1 MSTORE PUSH1 0x13 PUSH1 0x24 DUP3 ADD MSTORE PUSH19 0x4E6F7468696E6720746F207769746864726177 PUSH1 0x68 SHL PUSH1 0x44 DUP3 ADD MSTORE PUSH1 0x64 SWAP1 REVERT JUMPDEST PUSH1 0x40 MLOAD PUSH3 0x461BCD PUSH1 0xE5 SHL DUP2 MSTORE PUSH1 0x20 PUSH1 0x4 DUP3 ADD MSTORE PUSH1 0x12 PUSH1 0x24 DUP3 ADD MSTORE PUSH18 0x119959481DD85B1B195D081B9BDD081CD95D PUSH1 0x72 SHL PUSH1 0x44 DUP3 ADD MSTORE PUSH1 0x64 SWAP1 REVERT JUMPDEST PUSH1 0x40 MLOAD PUSH3 0x461BCD PUSH1 0xE5 SHL DUP2 MSTORE PUSH1 0x20 PUSH1 0x4 DUP3 ADD MSTORE PUSH1 0xF PUSH1 0x24 DUP3 ADD MSTORE PUSH15 0x131BD85B881B9BDD081C995C185A59 PUSH1 0x8A SHL PUSH1 0x44 DUP3 ADD MSTORE PUSH1 0x64 SWAP1 REVERT JUMPDEST CALLVALUE PUSH2 0x19D JUMPI PUSH1 0x0 CALLDATASIZE PUSH1 0x3 NOT ADD SLT PUSH2 0x19D JUMPI PUSH1 0x20 PUSH1 0xFF PUSH1 0x5 SLOAD PUSH1 0x18 SHR AND PUSH1 0x40 MLOAD SWAP1 DUP2 MSTORE RETURN JUMPDEST CALLVALUE PUSH2 0x19D JUMPI PUSH1 0x20 CALLDATASIZE PUSH1 0x3 NOT ADD SLT PUSH2 0x19D JUMPI PUSH1 0x4 CALLDATALOAD PUSH2 0xBB9 PUSH1 0x1 PUSH1 0x2 SLOAD EQ PUSH2 0x196F JUMP JUMPDEST PUSH1 0x2 DUP1 SSTORE PUSH2 0xBC6 DUP2 PUSH2 0x18DA JUMP JUMPDEST POP PUSH1 0x9 DUP2 ADD SLOAD PUSH1 0x1 PUSH1 0x1 PUSH1 0xA0 SHL SUB SWAP2 SWAP1 DUP3 AND PUSH2 0xBE3 CALLER DUP3 EQ PUSH2 0x1BA7 JUMP JUMPDEST PUSH1 0x6 DUP3 ADD SWAP1 DUP2 SLOAD SWAP2 PUSH1 0xFF DUP4 AND PUSH1 0x6 DUP2 LT ISZERO PUSH2 0x28D JUMPI PUSH1 0x1 PUSH2 0xC04 SWAP2 EQ PUSH2 0x19F6 JUMP JUMPDEST PUSH2 0xC17 PUSH1 0x7 DUP6 ADD SLOAD PUSH1 0x4 DUP7 ADD SLOAD SWAP1 PUSH2 0x1A2F JUMP JUMPDEST TIMESTAMP GT ISZERO PUSH2 0xCDD JUMPI PUSH1 0x0 DUP1 SWAP4 SWAP3 DUP2 SWAP4 SWAP3 PUSH1 0x5 DUP4 SWAP5 PUSH1 0xFF NOT AND OR SWAP1 SSTORE PUSH1 0x2 DUP7 ADD SLOAD SWAP1 GAS CALL PUSH2 0xC41 PUSH2 0x1A3C JUMP JUMPDEST POP ISZERO PUSH2 0xC9F JUMPI PUSH1 0xB DUP2 ADD SLOAD DUP1 PUSH2 0xC82 JUMPI JUMPDEST POP SLOAD AND SWAP1 PUSH32 0x533B2D8D57DC3B3D1C1BFD952E6355A9B573B6B9CCCC5F554157003F733BB514 PUSH1 0x0 DUP1 LOG3 PUSH1 0x1 PUSH1 0x2 SSTORE STOP JUMPDEST PUSH1 0x0 DUP1 DUP1 DUP1 PUSH2 0xC99 SWAP5 DUP8 DUP8 SLOAD AND GAS CALL PUSH2 0x7B5 PUSH2 0x1A3C JUMP JUMPDEST DUP4 PUSH2 0xC52 JUMP JUMPDEST PUSH1 0x40 MLOAD PUSH3 0x461BCD PUSH1 0xE5 SHL DUP2 MSTORE PUSH1 0x20 PUSH1 0x4 DUP3 ADD MSTORE PUSH1 0x16 PUSH1 0x24 DUP3 ADD MSTORE PUSH22 0x125B9D995CDD1BDC881C99599D5B990819985A5B1959 PUSH1 0x52 SHL PUSH1 0x44 DUP3 ADD MSTORE PUSH1 0x64 SWAP1 REVERT JUMPDEST PUSH1 0x40 MLOAD PUSH3 0x461BCD PUSH1 0xE5 SHL DUP2 MSTORE PUSH1 0x20 PUSH1 0x4 DUP3 ADD MSTORE PUSH1 0x30 PUSH1 0x24 DUP3 ADD MSTORE PUSH32 0x426F72726F7765722773207769746864726177616C20706572696F6420686173 PUSH1 0x44 DUP3 ADD MSTORE PUSH16 0x81B9BDD08195E1C1A5C9959081E595D PUSH1 0x82 SHL PUSH1 0x64 DUP3 ADD MSTORE PUSH1 0x84 SWAP1 REVERT JUMPDEST CALLVALUE PUSH2 0x19D JUMPI PUSH1 0x0 CALLDATASIZE PUSH1 0x3 NOT ADD SLT PUSH2 0x19D JUMPI PUSH1 0x0 SLOAD PUSH1 0x40 MLOAD PUSH1 0x1 PUSH1 0x1 PUSH1 0xA0 SHL SUB SWAP1 SWAP2 AND DUP2 MSTORE PUSH1 0x20 SWAP1 RETURN JUMPDEST PUSH1 0x20 CALLDATASIZE PUSH1 0x3 NOT ADD SLT PUSH2 0x19D JUMPI PUSH1 0x4 CALLDATALOAD PUSH2 0xD7C DUP2 PUSH2 0x18DA JUMP JUMPDEST POP PUSH1 0x6 DUP2 ADD DUP1 SLOAD PUSH1 0xFF DUP2 AND PUSH1 0x6 DUP2 LT ISZERO PUSH2 0x28D JUMPI PUSH2 0xD9A SWAP1 ISZERO PUSH2 0x1938 JUMP JUMPDEST PUSH1 0x5 DUP4 ADD SLOAD TIMESTAMP GT PUSH2 0xE8D JUMPI PUSH1 0x1 DUP4 ADD SLOAD CALLVALUE SUB PUSH2 0xE57 JUMPI PUSH1 0x9 DUP4 ADD DUP1 SLOAD SWAP2 SWAP1 PUSH1 0x1 PUSH1 0x1 PUSH1 0xA0 SHL SUB DUP4 AND PUSH2 0xE21 JUMPI PUSH1 0x1 SWAP3 CALLVALUE PUSH1 0x2 DUP8 ADD SSTORE CALLER SWAP1 PUSH12 0xFFFFFFFFFFFFFFFFFFFFFFFF PUSH1 0xA0 SHL AND OR SWAP1 SSTORE PUSH1 0xFF NOT AND OR SWAP1 SSTORE PUSH1 0x7 TIMESTAMP SWAP2 ADD SSTORE PUSH1 0x40 MLOAD SWAP1 CALLVALUE DUP3 MSTORE PUSH32 0x38C48552690C96EC2872092AC1DB6C19FB59F5A8C5B49BBF41ED4886D0CA6926 PUSH1 0x20 CALLER SWAP4 LOG3 STOP JUMPDEST PUSH1 0x40 MLOAD PUSH3 0x461BCD PUSH1 0xE5 SHL DUP2 MSTORE PUSH1 0x20 PUSH1 0x4 DUP3 ADD MSTORE PUSH1 0xE PUSH1 0x24 DUP3 ADD MSTORE PUSH14 0x105B1C9958591E48199D5B991959 PUSH1 0x92 SHL PUSH1 0x44 DUP3 ADD MSTORE PUSH1 0x64 SWAP1 REVERT JUMPDEST PUSH1 0x40 MLOAD PUSH3 0x461BCD PUSH1 0xE5 SHL DUP2 MSTORE PUSH1 0x20 PUSH1 0x4 DUP3 ADD MSTORE PUSH1 0xE PUSH1 0x24 DUP3 ADD MSTORE PUSH14 0x135D5CDD08199D5B9908199D5B1B PUSH1 0x92 SHL PUSH1 0x44 DUP3 ADD MSTORE PUSH1 0x64 SWAP1 REVERT JUMPDEST PUSH1 0x40 MLOAD PUSH3 0x461BCD PUSH1 0xE5 SHL DUP2 MSTORE PUSH1 0x20 PUSH1 0x4 DUP3 ADD MSTORE PUSH1 0xF PUSH1 0x24 DUP3 ADD MSTORE PUSH15 0x111958591B1A5B99481C185CDCD959 PUSH1 0x8A SHL PUSH1 0x44 DUP3 ADD MSTORE PUSH1 0x64 SWAP1 REVERT JUMPDEST CALLVALUE PUSH2 0x19D JUMPI PUSH1 0x20 CALLDATASIZE PUSH1 0x3 NOT ADD SLT PUSH2 0x19D JUMPI PUSH2 0xEE0 PUSH1 0x4 CALLDATALOAD PUSH2 0x1A87 JUMP JUMPDEST STOP JUMPDEST CALLVALUE PUSH2 0x19D JUMPI PUSH1 0x20 CALLDATASIZE PUSH1 0x3 NOT ADD SLT PUSH2 0x19D JUMPI PUSH1 0x4 CALLDATALOAD PUSH1 0x1 PUSH1 0x1 PUSH1 0xA0 SHL SUB DUP2 AND SWAP1 DUP2 SWAP1 SUB PUSH2 0x19D JUMPI PUSH1 0x0 MSTORE PUSH1 0x6 PUSH1 0x20 MSTORE PUSH1 0x40 PUSH1 0x0 KECCAK256 DUP1 SLOAD PUSH2 0xF41 PUSH1 0x2 PUSH1 0x1 DUP5 ADD SLOAD SWAP4 ADD SLOAD PUSH1 0x40 MLOAD SWAP4 DUP5 SWAP4 DUP5 PUSH1 0x40 SWAP2 SWAP5 SWAP4 SWAP3 PUSH1 0x60 DUP3 ADD SWAP6 DUP3 MSTORE PUSH1 0x20 DUP3 ADD MSTORE ADD MSTORE JUMP JUMPDEST SUB SWAP1 RETURN JUMPDEST CALLVALUE PUSH2 0x19D JUMPI PUSH1 0x40 CALLDATASIZE PUSH1 0x3 NOT ADD SLT PUSH2 0x19D JUMPI PUSH1 0x4 CALLDATALOAD PUSH2 0xF61 PUSH2 0x18CA JUMP JUMPDEST SWAP1 PUSH2 0xF70 PUSH1 0x1 PUSH1 0x2 SLOAD EQ PUSH2 0x196F JUMP JUMPDEST PUSH1 0x2 DUP1 SSTORE PUSH2 0xF7D DUP2 PUSH2 0x1A87 JUMP JUMPDEST PUSH2 0xF86 DUP2 PUSH2 0x18DA JUMP JUMPDEST POP PUSH1 0x9 DUP2 ADD DUP1 SLOAD PUSH1 0x1 PUSH1 0x1 PUSH1 0xA0 SHL SUB SWAP5 SWAP2 SWAP3 SWAP1 PUSH2 0xFA6 SWAP1 DUP7 AND CALLER EQ PUSH2 0x1BA7 JUMP JUMPDEST PUSH1 0xFF PUSH1 0x6 DUP3 ADD SLOAD AND PUSH1 0x6 DUP2 LT ISZERO PUSH2 0x28D JUMPI PUSH1 0x4 SUB PUSH2 0x126C JUMPI PUSH1 0xC DUP2 ADD DUP1 SLOAD SWAP2 PUSH1 0xFF DUP4 AND PUSH2 0x1235 JUMPI PUSH1 0xB ADD SLOAD SWAP2 DUP3 ISZERO PUSH2 0x1200 JUMPI PUSH1 0x1 SWAP1 PUSH1 0xFF NOT AND OR SWAP1 SSTORE PUSH1 0x5 DUP2 MUL DUP2 DUP2 DIV PUSH1 0x5 SUB PUSH2 0x53C JUMPI PUSH1 0x64 SWAP1 DIV PUSH2 0xFFE DUP2 DUP4 PUSH2 0x192B JUMP JUMPDEST SWAP6 PUSH1 0x0 DUP1 DUP1 DUP1 DUP6 DUP6 PUSH1 0x1 SLOAD AND GAS CALL PUSH2 0x1014 PUSH2 0x1A3C JUMP JUMPDEST POP ISZERO PUSH2 0x11C5 JUMPI PUSH1 0x0 DUP1 DUP1 DUP1 DUP11 DUP6 DUP11 SLOAD AND GAS CALL PUSH2 0x102E PUSH2 0x1A3C JUMP JUMPDEST POP ISZERO PUSH2 0x1180 JUMPI DUP6 SWAP2 PUSH32 0x90A49CC0FFE370F13CDB2E8C2F3F91AEB86BAE3A6AA0E060DA5FB4A9B91CDE99 SWAP2 PUSH2 0x107E DUP8 SLOAD SWAP10 PUSH1 0x40 MLOAD SWAP4 DUP5 SWAP4 DUP13 AND SWAP8 DUP5 PUSH1 0x40 SWAP2 SWAP5 SWAP4 SWAP3 PUSH1 0x60 DUP3 ADD SWAP6 DUP3 MSTORE PUSH1 0x20 DUP3 ADD MSTORE ADD MSTORE JUMP JUMPDEST SUB SWAP1 LOG3 PUSH1 0xFF DUP2 AND SWAP4 PUSH1 0x1 DUP6 LT ISZERO DUP1 PUSH2 0x1175 JUMPI JUMPDEST ISZERO PUSH2 0x1130 JUMPI PUSH1 0xA0 SHR PUSH1 0xFF AND PUSH2 0x10EB JUMPI DUP2 SLOAD PUSH1 0xFF PUSH1 0xA0 SHL NOT AND PUSH1 0xA0 SWAP2 SWAP1 SWAP2 SHL PUSH1 0xFF PUSH1 0xA0 SHL AND OR SWAP1 SSTORE PUSH1 0x40 MLOAD SWAP2 DUP3 MSTORE PUSH32 0x7514EBCAC1FEB55CC5D1869533571CCD5971AF19A7428BB57C1F780879EEC3D9 PUSH1 0x20 CALLER SWAP4 LOG3 PUSH1 0x1 PUSH1 0x2 SSTORE STOP JUMPDEST PUSH1 0x40 MLOAD PUSH3 0x461BCD PUSH1 0xE5 SHL DUP2 MSTORE PUSH1 0x20 PUSH1 0x4 DUP3 ADD MSTORE PUSH1 0x1B PUSH1 0x24 DUP3 ADD MSTORE PUSH32 0x53636F72652068617320616C7265616479206265656E206C6566740000000000 PUSH1 0x44 DUP3 ADD MSTORE PUSH1 0x64 SWAP1 REVERT JUMPDEST PUSH1 0x40 MLOAD PUSH3 0x461BCD PUSH1 0xE5 SHL DUP2 MSTORE PUSH1 0x20 PUSH1 0x4 DUP3 ADD MSTORE PUSH1 0x1D PUSH1 0x24 DUP3 ADD MSTORE PUSH32 0x53636F7265206D757374206265206265747765656E203120616E642035000000 PUSH1 0x44 DUP3 ADD MSTORE PUSH1 0x64 SWAP1 REVERT JUMPDEST POP PUSH1 0x5 DUP6 GT ISZERO PUSH2 0x1091 JUMP JUMPDEST PUSH1 0x40 MLOAD PUSH3 0x461BCD PUSH1 0xE5 SHL DUP2 MSTORE PUSH1 0x20 PUSH1 0x4 DUP3 ADD MSTORE PUSH1 0x18 PUSH1 0x24 DUP3 ADD MSTORE PUSH32 0x496E766573746F72207472616E73666572206661696C65640000000000000000 PUSH1 0x44 DUP3 ADD MSTORE PUSH1 0x64 SWAP1 REVERT JUMPDEST PUSH1 0x40 MLOAD PUSH3 0x461BCD PUSH1 0xE5 SHL DUP2 MSTORE PUSH1 0x20 PUSH1 0x4 DUP3 ADD MSTORE PUSH1 0x13 PUSH1 0x24 DUP3 ADD MSTORE PUSH19 0x119959481D1C985B9CD9995C8819985A5B1959 PUSH1 0x6A SHL PUSH1 0x44 DUP3 ADD MSTORE PUSH1 0x64 SWAP1 REVERT JUMPDEST PUSH1 0x40 MLOAD PUSH3 0x461BCD PUSH1 0xE5 SHL DUP2 MSTORE PUSH1 0x20 PUSH1 0x4 DUP3 ADD MSTORE PUSH1 0xD PUSH1 0x24 DUP3 ADD MSTORE PUSH13 0x139BC818DBDB1B185D195C985B PUSH1 0x9A SHL PUSH1 0x44 DUP3 ADD MSTORE PUSH1 0x64 SWAP1 REVERT JUMPDEST PUSH1 0x40 MLOAD PUSH3 0x461BCD PUSH1 0xE5 SHL DUP2 MSTORE PUSH1 0x20 PUSH1 0x4 DUP3 ADD MSTORE PUSH1 0xF PUSH1 0x24 DUP3 ADD MSTORE PUSH15 0x105B1C9958591E4818DB185A5B5959 PUSH1 0x8A SHL PUSH1 0x44 DUP3 ADD MSTORE PUSH1 0x64 SWAP1 REVERT JUMPDEST PUSH1 0x40 MLOAD PUSH3 0x461BCD PUSH1 0xE5 SHL DUP2 MSTORE PUSH1 0x20 PUSH1 0x4 DUP3 ADD MSTORE PUSH1 0xD PUSH1 0x24 DUP3 ADD MSTORE PUSH13 0x139BDD08191959985D5B1D1959 PUSH1 0x9A SHL PUSH1 0x44 DUP3 ADD MSTORE PUSH1 0x64 SWAP1 REVERT JUMPDEST CALLVALUE PUSH2 0x19D JUMPI PUSH1 0x0 CALLDATASIZE PUSH1 0x3 NOT ADD SLT PUSH2 0x19D JUMPI PUSH1 0x20 PUSH1 0x7 SLOAD PUSH1 0x40 MLOAD SWAP1 DUP2 MSTORE RETURN JUMPDEST CALLVALUE PUSH2 0x19D JUMPI PUSH1 0x20 CALLDATASIZE PUSH1 0x3 NOT ADD SLT PUSH2 0x19D JUMPI PUSH1 0x4 CALLDATALOAD PUSH1 0x2 PUSH2 0x12E2 PUSH1 0x1 DUP3 SLOAD EQ PUSH2 0x196F JUMP JUMPDEST DUP1 DUP1 SSTORE PUSH2 0x12EE DUP3 PUSH2 0x18DA JUMP JUMPDEST POP SWAP2 PUSH2 0x1304 PUSH1 0x1 DUP1 PUSH1 0xA0 SHL SUB DUP5 SLOAD AND CALLER EQ PUSH2 0x19BB JUMP JUMPDEST PUSH1 0x6 DUP4 ADD DUP1 SLOAD SWAP4 PUSH1 0xFF DUP6 AND PUSH1 0x6 DUP2 LT ISZERO PUSH2 0x28D JUMPI PUSH1 0x1 PUSH2 0x1324 SWAP2 EQ PUSH2 0x19F6 JUMP JUMPDEST PUSH2 0x1337 PUSH1 0x7 DUP3 ADD SLOAD PUSH1 0x4 DUP4 ADD SLOAD SWAP1 PUSH2 0x1A2F JUMP JUMPDEST TIMESTAMP GT PUSH2 0x13FE JUMPI DUP4 ADD SLOAD SWAP4 DUP5 ISZERO PUSH2 0x13CD JUMPI PUSH1 0xFF NOT AND DUP4 OR SWAP1 SSTORE PUSH1 0x0 DUP1 DUP1 DUP1 DUP7 CALLER GAS CALL PUSH2 0x1360 PUSH2 0x1A3C JUMP JUMPDEST POP ISZERO PUSH2 0x1396 JUMPI PUSH32 0x69CE060F535737417B4A4EBB86AE7A865885C5C1E8106F7ED0B8BD9C52641BC6 PUSH1 0x20 PUSH1 0x1 SWAP5 PUSH1 0x40 MLOAD SWAP1 DUP2 MSTORE LOG2 SSTORE STOP JUMPDEST PUSH1 0x40 MLOAD PUSH3 0x461BCD PUSH1 0xE5 SHL DUP2 MSTORE PUSH1 0x20 PUSH1 0x4 DUP3 ADD MSTORE PUSH1 0xF PUSH1 0x24 DUP3 ADD MSTORE PUSH15 0x151C985B9CD9995C8819985A5B1959 PUSH1 0x8A SHL PUSH1 0x44 DUP3 ADD MSTORE PUSH1 0x64 SWAP1 REVERT JUMPDEST PUSH1 0x40 MLOAD PUSH3 0x461BCD PUSH1 0xE5 SHL DUP2 MSTORE PUSH1 0x20 PUSH1 0x4 DUP3 ADD MSTORE PUSH1 0x9 PUSH1 0x24 DUP3 ADD MSTORE PUSH9 0x139BC8185B5BDD5B9D PUSH1 0xBA SHL PUSH1 0x44 DUP3 ADD MSTORE PUSH1 0x64 SWAP1 REVERT JUMPDEST PUSH1 0x40 MLOAD PUSH3 0x461BCD PUSH1 0xE5 SHL DUP2 MSTORE PUSH1 0x20 PUSH1 0x4 DUP3 ADD MSTORE PUSH1 0x1A PUSH1 0x24 DUP3 ADD MSTORE PUSH32 0x576974686472617720706572696F642068617320706173736564000000000000 PUSH1 0x44 DUP3 ADD MSTORE PUSH1 0x64 SWAP1 REVERT JUMPDEST CALLVALUE PUSH2 0x19D JUMPI PUSH1 0x20 CALLDATASIZE PUSH1 0x3 NOT ADD SLT PUSH2 0x19D JUMPI PUSH1 0x4 CALLDATALOAD PUSH1 0x1 PUSH1 0x1 PUSH1 0xA0 SHL SUB DUP2 AND DUP2 SUB PUSH2 0x19D JUMPI PUSH2 0x1470 SWAP1 PUSH2 0x1CEE JUMP JUMPDEST PUSH1 0x40 MLOAD PUSH1 0x3 DUP3 LT ISZERO PUSH2 0x28D JUMPI PUSH1 0x20 SWAP2 DUP2 MSTORE RETURN JUMPDEST PUSH1 0x20 DUP1 PUSH1 0x3 NOT CALLDATASIZE ADD SLT PUSH2 0x19D JUMPI PUSH1 0x4 CALLDATALOAD SWAP1 PUSH2 0x14A2 PUSH1 0x1 PUSH1 0x2 SLOAD EQ PUSH2 0x196F JUMP JUMPDEST PUSH1 0x2 DUP1 SSTORE PUSH2 0x14AF DUP3 PUSH2 0x18DA JUMP JUMPDEST POP DUP1 SLOAD PUSH1 0x1 PUSH1 0x1 PUSH1 0xA0 SHL SUB SWAP1 PUSH2 0x14C8 SWAP1 DUP3 AND CALLER EQ PUSH2 0x19BB JUMP JUMPDEST PUSH1 0x6 DUP3 ADD SWAP1 PUSH1 0xFF DUP3 SLOAD AND PUSH1 0x6 DUP2 LT ISZERO PUSH2 0x28D JUMPI PUSH1 0x2 SUB PUSH2 0x1710 JUMPI PUSH2 0x14F5 PUSH1 0x7 DUP5 ADD SLOAD PUSH1 0x4 DUP6 ADD SLOAD SWAP1 PUSH2 0x1A2F JUMP JUMPDEST TIMESTAMP GT PUSH2 0x16CB JUMPI PUSH2 0x1504 DUP6 PUSH2 0x1A87 JUMP JUMPDEST PUSH2 0x1524 PUSH1 0x1 DUP5 ADD SLOAD PUSH2 0x2710 PUSH2 0x151D PUSH1 0x3 DUP8 ADD SLOAD DUP4 PUSH2 0x1B28 JUMP JUMPDEST DIV SWAP1 PUSH2 0x1A2F JUMP JUMPDEST SWAP3 DUP4 CALLVALUE LT PUSH2 0x1699 JUMPI DUP4 PUSH1 0x8 DUP3 ADD SSTORE PUSH1 0xFF NOT SWAP3 PUSH1 0x3 DUP5 DUP3 SLOAD AND OR SWAP1 SSTORE DUP6 PUSH1 0x0 MSTORE PUSH1 0x8 DUP6 MSTORE DUP4 PUSH1 0x40 PUSH1 0x0 KECCAK256 SSTORE PUSH1 0xB DUP2 ADD SWAP3 DUP4 SLOAD SWAP1 DUP2 PUSH2 0x15EE JUMPI JUMPDEST POP POP POP POP POP DUP1 CALLVALUE GT PUSH2 0x159A JUMPI JUMPDEST SWAP1 PUSH32 0xD3337F372235C0C137836A45251CD21FBA324E7EF27C7ACC5AC12451491793B9 SWAP2 PUSH1 0x40 MLOAD SWAP1 DUP2 MSTORE LOG2 PUSH1 0x1 PUSH1 0x2 SSTORE STOP JUMPDEST PUSH1 0x0 DUP1 DUP1 DUP1 PUSH2 0x15A9 DUP6 CALLVALUE PUSH2 0x192B JUMP JUMPDEST CALLER GAS CALL PUSH2 0x15B4 PUSH2 0x1A3C JUMP JUMPDEST POP PUSH2 0x1569 JUMPI PUSH1 0x40 MLOAD PUSH3 0x461BCD PUSH1 0xE5 SHL DUP2 MSTORE PUSH1 0x4 DUP2 ADD DUP4 SWAP1 MSTORE PUSH1 0xD PUSH1 0x24 DUP3 ADD MSTORE PUSH13 0x1499599D5B990819985A5B1959 PUSH1 0x9A SHL PUSH1 0x44 DUP3 ADD MSTORE PUSH1 0x64 SWAP1 REVERT JUMPDEST PUSH1 0xC DUP4 ADD SWAP1 DUP2 SLOAD PUSH1 0xFF DUP2 AND PUSH2 0x1654 JUMPI PUSH1 0x0 DUP1 DUP1 DUP1 DUP13 SWAP8 DUP15 SWAP11 SWAP8 PUSH1 0x1 PUSH32 0x7C5E5CB62E5ED3CAF3764E4B0AFEDFEDEF533E27809D43367799787AD2ABCD41 SWAP12 SWAP9 PUSH2 0x163F SWAP9 AND OR SWAP1 SSTORE CALLER GAS CALL PUSH2 0x7B5 PUSH2 0x1A3C JUMP JUMPDEST SLOAD AND SWAP4 SLOAD PUSH1 0x40 MLOAD SWAP1 DUP2 MSTORE LOG3 DUP4 DUP1 DUP1 DUP1 DUP1 PUSH2 0x155C JUMP JUMPDEST PUSH1 0x40 MLOAD PUSH3 0x461BCD PUSH1 0xE5 SHL DUP2 MSTORE PUSH1 0x4 DUP2 ADD DUP11 SWAP1 MSTORE PUSH1 0x1A PUSH1 0x24 DUP3 ADD MSTORE PUSH32 0x436F6C6C61746572616C20616C72656164792068616E646C6564000000000000 PUSH1 0x44 DUP3 ADD MSTORE PUSH1 0x64 SWAP1 REVERT JUMPDEST PUSH1 0x40 MLOAD PUSH3 0x461BCD PUSH1 0xE5 SHL DUP2 MSTORE PUSH1 0x4 DUP2 ADD DUP7 SWAP1 MSTORE PUSH1 0xA PUSH1 0x24 DUP3 ADD MSTORE PUSH10 0x9CDEE840CADCDEEACED PUSH1 0xB3 SHL PUSH1 0x44 DUP3 ADD MSTORE PUSH1 0x64 SWAP1 REVERT JUMPDEST PUSH1 0x40 MLOAD PUSH3 0x461BCD PUSH1 0xE5 SHL DUP2 MSTORE PUSH1 0x4 DUP2 ADD DUP6 SWAP1 MSTORE PUSH1 0x1B PUSH1 0x24 DUP3 ADD MSTORE PUSH32 0x52657061796D656E7420706572696F6420686173207061737365640000000000 PUSH1 0x44 DUP3 ADD MSTORE PUSH1 0x64 SWAP1 REVERT JUMPDEST PUSH1 0x40 MLOAD PUSH3 0x461BCD PUSH1 0xE5 SHL DUP2 MSTORE PUSH1 0x4 DUP2 ADD DUP6 SWAP1 MSTORE PUSH1 0x12 PUSH1 0x24 DUP3 ADD MSTORE PUSH18 0x4C6F616E206973206E6F7420616374697665 PUSH1 0x70 SHL PUSH1 0x44 DUP3 ADD MSTORE PUSH1 0x64 SWAP1 REVERT JUMPDEST CALLVALUE PUSH2 0x19D JUMPI PUSH1 0x20 CALLDATASIZE PUSH1 0x3 NOT ADD SLT PUSH2 0x19D JUMPI PUSH1 0x4 CALLDATALOAD PUSH1 0x1 PUSH1 0x1 PUSH1 0xA0 SHL SUB DUP2 AND DUP2 SUB PUSH2 0x19D JUMPI PUSH2 0x1779 PUSH1 0x20 SWAP2 PUSH2 0x1C2B JUMP JUMPDEST PUSH1 0x40 MLOAD SWAP1 DUP2 MSTORE RETURN JUMPDEST CALLVALUE PUSH2 0x19D JUMPI PUSH1 0x0 CALLDATASIZE PUSH1 0x3 NOT ADD SLT PUSH2 0x19D JUMPI PUSH1 0x20 PUSH1 0x3 SLOAD PUSH1 0x40 MLOAD SWAP1 DUP2 MSTORE RETURN JUMPDEST CALLVALUE PUSH2 0x19D JUMPI PUSH1 0xC0 CALLDATASIZE PUSH1 0x3 NOT ADD SLT PUSH2 0x19D JUMPI PUSH1 0x44 CALLDATALOAD PUSH1 0xFF DUP2 AND DUP2 SUB PUSH2 0x19D JUMPI PUSH1 0x64 CALLDATALOAD PUSH1 0xFF DUP2 AND DUP2 SUB PUSH2 0x19D JUMPI PUSH1 0x84 CALLDATALOAD SWAP1 PUSH1 0xFF DUP3 AND DUP1 SWAP3 SUB PUSH2 0x19D JUMPI PUSH1 0xA4 CALLDATALOAD PUSH1 0xFF DUP2 AND DUP2 SUB PUSH2 0x19D JUMPI PUSH1 0x0 SLOAD PUSH1 0x1 PUSH1 0x1 PUSH1 0xA0 SHL SUB AND CALLER SUB PUSH2 0x185A JUMPI PUSH4 0xFF000000 SWAP1 PUSH1 0x4 CALLDATALOAD PUSH1 0x3 SSTORE PUSH1 0x24 CALLDATALOAD PUSH1 0x4 SSTORE PUSH2 0xFF00 PUSH3 0xFF0000 PUSH1 0x5 SLOAD SWAP3 PUSH1 0x10 SHL AND SWAP6 PUSH1 0x8 SHL AND SWAP1 PUSH4 0xFFFFFFFF NOT AND OR SWAP2 PUSH1 0x18 SHL AND OR OR OR PUSH1 0x5 SSTORE CALLER PUSH32 0xA0C5DAB9B76807B86D9A9E4DBBEA25E079DB4C633B14E9312484433E4DE86FF1 PUSH1 0x0 DUP1 LOG2 STOP JUMPDEST PUSH1 0x40 MLOAD PUSH3 0x461BCD PUSH1 0xE5 SHL DUP2 MSTORE PUSH1 0x20 PUSH1 0x4 DUP3 ADD MSTORE PUSH1 0x21 PUSH1 0x24 DUP3 ADD MSTORE PUSH32 0x4F6E6C79206F776E65722063616E2063616C6C20746869732066756E6374696F PUSH1 0x44 DUP3 ADD MSTORE PUSH1 0x37 PUSH1 0xF9 SHL PUSH1 0x64 DUP3 ADD MSTORE PUSH1 0x84 SWAP1 REVERT JUMPDEST CALLVALUE PUSH2 0x19D JUMPI PUSH1 0x0 CALLDATASIZE PUSH1 0x3 NOT ADD SLT PUSH2 0x19D JUMPI PUSH1 0x20 SWAP1 PUSH1 0xFF PUSH1 0x5 SLOAD PUSH1 0x10 SHR AND DUP2 MSTORE RETURN JUMPDEST PUSH1 0x24 CALLDATALOAD SWAP1 PUSH1 0xFF DUP3 AND DUP3 SUB PUSH2 0x19D JUMPI JUMP JUMPDEST PUSH1 0x7 SLOAD DUP2 LT ISZERO PUSH2 0x1915 JUMPI PUSH1 0xD SWAP1 PUSH1 0x7 PUSH1 0x0 MSTORE MUL PUSH32 0xA66CC928B5EDB82AF9BD49922954155AB7B0942694BEA4CE44661D9A8736C688 ADD SWAP1 PUSH1 0x0 SWAP1 JUMP JUMPDEST PUSH4 0x4E487B71 PUSH1 0xE0 SHL PUSH1 0x0 MSTORE PUSH1 0x32 PUSH1 0x4 MSTORE PUSH1 0x24 PUSH1 0x0 REVERT JUMPDEST SWAP2 SWAP1 DUP3 SUB SWAP2 DUP3 GT PUSH2 0x53C JUMPI JUMP JUMPDEST ISZERO PUSH2 0x193F JUMPI JUMP JUMPDEST PUSH1 0x40 MLOAD PUSH3 0x461BCD PUSH1 0xE5 SHL DUP2 MSTORE PUSH1 0x20 PUSH1 0x4 DUP3 ADD MSTORE PUSH1 0x8 PUSH1 0x24 DUP3 ADD MSTORE PUSH8 0x2737BA1037B832B7 PUSH1 0xC1 SHL PUSH1 0x44 DUP3 ADD MSTORE PUSH1 0x64 SWAP1 REVERT JUMPDEST ISZERO PUSH2 0x1976 JUMPI JUMP JUMPDEST PUSH1 0x40 MLOAD PUSH3 0x461BCD PUSH1 0xE5 SHL DUP2 MSTORE PUSH1 0x20 PUSH1 0x4 DUP3 ADD MSTORE PUSH1 0x1F PUSH1 0x24 DUP3 ADD MSTORE PUSH32 0x5265656E7472616E637947756172643A207265656E7472616E742063616C6C00 PUSH1 0x44 DUP3 ADD MSTORE PUSH1 0x64 SWAP1 REVERT JUMPDEST ISZERO PUSH2 0x19C2 JUMPI JUMP JUMPDEST PUSH1 0x40 MLOAD PUSH3 0x461BCD PUSH1 0xE5 SHL DUP2 MSTORE PUSH1 0x20 PUSH1 0x4 DUP3 ADD MSTORE PUSH1 0xC PUSH1 0x24 DUP3 ADD MSTORE PUSH12 0x2737BA103137B93937BBB2B9 PUSH1 0xA1 SHL PUSH1 0x44 DUP3 ADD MSTORE PUSH1 0x64 SWAP1 REVERT JUMPDEST ISZERO PUSH2 0x19FD JUMPI JUMP JUMPDEST PUSH1 0x40 MLOAD PUSH3 0x461BCD PUSH1 0xE5 SHL DUP2 MSTORE PUSH1 0x20 PUSH1 0x4 DUP3 ADD MSTORE PUSH1 0xA PUSH1 0x24 DUP3 ADD MSTORE PUSH10 0x139BDD08199D5B991959 PUSH1 0xB2 SHL PUSH1 0x44 DUP3 ADD MSTORE PUSH1 0x64 SWAP1 REVERT JUMPDEST SWAP2 SWAP1 DUP3 ADD DUP1 SWAP3 GT PUSH2 0x53C JUMPI JUMP JUMPDEST RETURNDATASIZE ISZERO PUSH2 0x1A82 JUMPI PUSH8 0xFFFFFFFFFFFFFFFF SWAP1 RETURNDATASIZE DUP3 DUP2 GT PUSH2 0x568 JUMPI PUSH1 0x40 MLOAD SWAP3 PUSH1 0x1F DUP3 ADD PUSH1 0x1F NOT SWAP1 DUP2 AND PUSH1 0x3F ADD AND DUP5 ADD SWAP1 DUP2 GT DUP5 DUP3 LT OR PUSH2 0x568 JUMPI PUSH1 0x40 MSTORE DUP3 MSTORE RETURNDATASIZE PUSH1 0x0 PUSH1 0x20 DUP5 ADD RETURNDATACOPY JUMP JUMPDEST PUSH1 0x60 SWAP1 JUMP JUMPDEST PUSH2 0x1A90 DUP2 PUSH2 0x18DA JUMP JUMPDEST POP PUSH1 0x6 DUP2 ADD DUP1 SLOAD PUSH1 0xFF DUP2 AND PUSH1 0x6 DUP2 LT ISZERO PUSH2 0x28D JUMPI PUSH1 0x2 EQ DUP1 PUSH2 0x1B0D JUMPI JUMPDEST DUP1 PUSH2 0x1B01 JUMPI JUMPDEST PUSH2 0x1ABE JUMPI JUMPDEST POP POP POP POP JUMP JUMPDEST PUSH1 0x4 SWAP1 PUSH1 0xFF NOT AND OR SWAP1 SSTORE PUSH1 0xA TIMESTAMP SWAP2 ADD SSTORE PUSH32 0x84908FCA714735411D4553DDD185A4D6FDC25FDA2D15662153EF18A8AD6099B4 PUSH1 0x20 PUSH1 0x40 MLOAD TIMESTAMP DUP2 MSTORE LOG2 CODESIZE DUP1 DUP1 DUP1 PUSH2 0x1AB8 JUMP JUMPDEST POP PUSH1 0xA DUP4 ADD SLOAD ISZERO PUSH2 0x1AB3 JUMP JUMPDEST POP PUSH2 0x1B21 PUSH1 0x7 DUP5 ADD SLOAD PUSH1 0x4 DUP6 ADD SLOAD SWAP1 PUSH2 0x1A2F JUMP JUMPDEST TIMESTAMP GT PUSH2 0x1AAD JUMP JUMPDEST DUP2 DUP2 MUL SWAP3 SWAP2 DUP2 ISZERO SWAP2 DUP5 DIV EQ OR ISZERO PUSH2 0x53C JUMPI JUMP JUMPDEST DUP2 ISZERO PUSH2 0x1B45 JUMPI DIV SWAP1 JUMP JUMPDEST PUSH4 0x4E487B71 PUSH1 0xE0 SHL PUSH1 0x0 MSTORE PUSH1 0x12 PUSH1 0x4 MSTORE PUSH1 0x24 PUSH1 0x0 REVERT JUMPDEST ISZERO PUSH2 0x1B62 JUMPI JUMP JUMPDEST PUSH1 0x40 MLOAD PUSH3 0x461BCD PUSH1 0xE5 SHL DUP2 MSTORE PUSH1 0x20 PUSH1 0x4 DUP3 ADD MSTORE PUSH1 0x18 PUSH1 0x24 DUP3 ADD MSTORE PUSH32 0x436F6C6C61746572616C20726566756E64206661696C65640000000000000000 PUSH1 0x44 DUP3 ADD MSTORE PUSH1 0x64 SWAP1 REVERT JUMPDEST ISZERO PUSH2 0x1BAE JUMPI JUMP JUMPDEST PUSH1 0x40 MLOAD PUSH3 0x461BCD PUSH1 0xE5 SHL DUP2 MSTORE PUSH1 0x20 PUSH1 0x4 DUP3 ADD MSTORE PUSH1 0xC PUSH1 0x24 DUP3 ADD MSTORE PUSH12 0x2737BA1034B73B32B9BA37B9 PUSH1 0xA1 SHL PUSH1 0x44 DUP3 ADD MSTORE PUSH1 0x64 SWAP1 REVERT JUMPDEST ISZERO PUSH2 0x1BE9 JUMPI JUMP JUMPDEST PUSH1 0x40 MLOAD PUSH3 0x461BCD PUSH1 0xE5 SHL DUP2 MSTORE PUSH1 0x20 PUSH1 0x4 DUP3 ADD MSTORE PUSH1 0xB PUSH1 0x24 DUP3 ADD MSTORE PUSH11 0x14D95B990819985A5B1959 PUSH1 0xAA SHL PUSH1 0x44 DUP3 ADD MSTORE PUSH1 0x64 SWAP1 REVERT JUMPDEST PUSH1 0x0 NOT DUP2 EQ PUSH2 0x53C JUMPI PUSH1 0x1 ADD SWAP1 JUMP JUMPDEST PUSH1 0x7 SLOAD PUSH1 0x0 SWAP2 DUP3 SWAP2 SWAP1 DUP3 JUMPDEST DUP3 DUP2 LT PUSH2 0x1C6C JUMPI POP POP POP DUP1 ISZERO PUSH2 0x1C65 JUMPI PUSH1 0x64 DUP3 MUL SWAP2 DUP1 DUP4 DIV PUSH1 0x64 EQ SWAP1 ISZERO OR ISZERO PUSH2 0x53C JUMPI PUSH2 0x1C62 SWAP2 PUSH2 0x1B3B JUMP JUMPDEST SWAP1 JUMP JUMPDEST POP POP PUSH1 0x0 SWAP1 JUMP JUMPDEST PUSH2 0x1C75 DUP2 PUSH2 0x18DA JUMP JUMPDEST POP SLOAD PUSH1 0x1 PUSH1 0x1 PUSH1 0xA0 SHL SUB DUP4 DUP2 AND SWAP2 AND EQ DUP1 PUSH2 0x1CD2 JUMPI JUMPDEST PUSH2 0x1C9E JUMPI JUMPDEST PUSH2 0x1C99 SWAP1 PUSH2 0x1C1C JUMP JUMPDEST PUSH2 0x1C36 JUMP JUMPDEST SWAP3 SWAP4 PUSH2 0x1CCA PUSH2 0x1CC4 PUSH2 0x1C99 SWAP3 PUSH1 0xFF PUSH1 0x9 PUSH2 0x1CB7 DUP10 PUSH2 0x18DA JUMP JUMPDEST POP ADD SLOAD PUSH1 0xA0 SHR AND SWAP1 PUSH2 0x1A2F JUMP JUMPDEST SWAP6 PUSH2 0x1C1C JUMP JUMPDEST SWAP4 SWAP1 POP PUSH2 0x1C90 JUMP JUMPDEST POP PUSH1 0xFF PUSH1 0x9 PUSH2 0x1CE0 DUP4 PUSH2 0x18DA JUMP JUMPDEST POP ADD SLOAD PUSH1 0xA0 SHR AND ISZERO ISZERO PUSH2 0x1C8B JUMP JUMPDEST PUSH1 0x1 PUSH1 0x1 PUSH1 0xA0 SHL SUB AND PUSH1 0x0 SWAP1 DUP2 MSTORE PUSH1 0x6 PUSH1 0x20 MSTORE PUSH1 0x40 DUP2 KECCAK256 DUP1 SLOAD SWAP1 DUP2 ISZERO DUP1 ISZERO PUSH2 0x1DB0 JUMPI JUMPDEST PUSH2 0x1DAB JUMPI PUSH1 0x1 DUP2 ADD SLOAD SWAP1 PUSH1 0x14 DUP3 MUL SWAP2 DUP1 DUP4 DIV PUSH1 0x14 EQ SWAP1 ISZERO OR ISZERO PUSH2 0x1D97 JUMPI PUSH1 0x2 ADD SLOAD PUSH2 0x1D3B SWAP2 PUSH2 0x1B3B JUMP JUMPDEST PUSH1 0x5 SLOAD SWAP2 PUSH1 0xFF DUP4 AND DUP2 LT ISZERO DUP1 PUSH2 0x1D88 JUMPI JUMPDEST PUSH2 0x1D7F JUMPI PUSH1 0xFF DUP4 PUSH1 0x8 SHR AND GT ISZERO SWAP2 DUP3 PUSH2 0x1D6F JUMPI JUMPDEST POP POP PUSH2 0x1D69 JUMPI SWAP1 JUMP JUMPDEST POP PUSH1 0x1 SWAP1 JUMP JUMPDEST PUSH1 0x18 SHR PUSH1 0xFF AND LT SWAP1 POP CODESIZE DUP1 PUSH2 0x1D60 JUMP JUMPDEST POP POP POP POP PUSH1 0x2 SWAP1 JUMP JUMPDEST POP PUSH1 0xFF DUP4 PUSH1 0x10 SHR AND DUP3 GT PUSH2 0x1D4C JUMP JUMPDEST PUSH4 0x4E487B71 PUSH1 0xE0 SHL DUP5 MSTORE PUSH1 0x11 PUSH1 0x4 MSTORE PUSH1 0x24 DUP5 REVERT JUMPDEST POP POP SWAP1 JUMP JUMPDEST POP PUSH1 0x2 DUP2 ADD SLOAD ISZERO PUSH2 0x1D11 JUMP INVALID LOG2 PUSH5 0x6970667358 0x22 SLT KECCAK256 RETURN LOG1 PUSH23 0xB964E0C3C4372E197245F99F222F22DEB0AE9A6A441247 PUSH3 0xCA070B 0xB3 DUP4 PUSH5 0x736F6C6343 STOP ADDMOD SGT STOP CALLER "},"methodIdentifiers":{"averageScoreOfBorrower(address)":"31798f61","borrowerProfiles(address)":"6949000c","bronzeLoanLimit()":"14c2b2e2","cancelFundedLoan(uint256)":"9f919124","cancelLoan(uint256)":"bdbfa3de","checkDefault(uint256)":"759135a1","claimCollateral(uint256,uint8)":"5f76cdfd","createLoan(uint256,uint256,uint256,uint256,uint256)":"cf2b4cbc","feeWallet()":"f25f4b56","fundLoan(uint256)":"846b909a","getBorrowerTier(address)":"4a86cc8d","getLoanCount()":"52196812","goldReqAvgScorePercent()":"0e1d4753","goldReqRepaid()":"d6f91efd","loans(uint256)":"e1ec3c68","owner()":"8da5cb5b","repay(uint256)":"371fd8e6","setTierRequirements(uint256,uint256,uint8,uint8,uint8,uint8)":"0e3b671c","silverLoanLimit()":"da259955","silverReqAvgScorePercent()":"a1c27835","silverReqRepaid()":"c88bb8c0","withdrawAsBorrower(uint256)":"4d8a2e15","withdrawInvestorShare(uint256,uint8)":"b7f0b7ee","withdrawableOf(uint256)":"d1fdb3e8"}}}}}