{
  "_format": "hh-sol-artifact-1",
  "contractName": "LoanMarket",
  "sourceName": "contracts/Loan.sol",
  "abi": [
    {
      "inputs": [
        {
          "internalType": "address payable",
          "name": "_feeWallet",
          "type": "address"
        },
        {
          "internalType": "uint256",
          "name": "_bronzeLoanLimit",
          "type": "uint256"
        },
        {
          "internalType": "uint256",
          "name": "_silverLoanLimit",
          "type": "uint256"
        },
        {
          "internalType": "uint8",
          "name": "_silverReqRepaid",
          "type": "uint8"
        },
        {
          "internalType": "uint8",
          "name": "_silverReqAvgScore",
          "type": "uint8"
        },
        {
          "internalType": "uint8",
          "name": "_goldReqRepaid",
          "type": "uint8"
        },
        {
          "internalType": "uint8",
          "name": "_goldReqAvgScore",
          "type": "uint8"
        }
      ],
      "stateMutability": "nonpayable",
      "type": "constructor"
    },
    {
      "anonymous": false,
      "inputs": [
        {
          "indexed": true,
          "internalType": "uint256",
          "name": "loanId",
          "type": "uint256"
        },
        {
          "indexed": true,
          "internalType": "address",
          "name": "investor",
          "type": "address"
        },
        {
          "indexed": false,
          "internalType": "uint256",
          "name": "grossAmount",
          "type": "uint256"
        },
        {
          "indexed": false,
          "internalType": "uint256",
          "name": "fee",
          "type": "uint256"
        },
        {
          "indexed": false,
          "internalType": "uint256",
          "name": "netAmount",
          "type": "uint256"
        }
      ],
      "name": "CollateralClaimed",
      "type": "event"
    },
    {
      "anonymous": false,
      "inputs": [
        {
          "indexed": true,
          "internalType": "uint256",
          "name": "loanId",
          "type": "uint256"
        },
        {
          "indexed": true,
          "internalType": "address",
          "name": "borrower",
          "type": "address"
        },
        {
          "indexed": false,
          "internalType": "uint256",
          "name": "amount",
          "type": "uint256"
        }
      ],
      "name": "CollateralWithdrawn",
      "type": "event"
    },
    {
      "anonymous": false,
      "inputs": [
        {
          "indexed": true,
          "internalType": "uint256",
          "name": "loanId",
          "type": "uint256"
        },
        {
          "indexed": false,
          "internalType": "uint256",
          "name": "defaultTimestamp",
          "type": "uint256"
        }
      ],
      "name": "Defaulted",
      "type": "event"
    },
    {
      "anonymous": false,
      "inputs": [
        {
          "indexed": true,
          "internalType": "uint256",
          "name": "loanId",
          "type": "uint256"
        },
        {
          "indexed": true,
          "internalType": "address",
          "name": "investor",
          "type": "address"
        },
        {
          "indexed": false,
          "internalType": "uint256",
          "name": "amount",
          "type": "uint256"
        }
      ],
      "name": "Funded",
      "type": "event"
    },
    {
      "anonymous": false,
      "inputs": [
        {
          "indexed": true,
          "internalType": "uint256",
          "name": "loanId",
          "type": "uint256"
        },
        {
          "indexed": true,
          "internalType": "address",
          "name": "investor",
          "type": "address"
        },
        {
          "indexed": false,
          "internalType": "uint256",
          "name": "amount",
          "type": "uint256"
        }
      ],
      "name": "InvestorWithdraw",
      "type": "event"
    },
    {
      "anonymous": false,
      "inputs": [
        {
          "indexed": true,
          "internalType": "uint256",
          "name": "loanId",
          "type": "uint256"
        },
        {
          "indexed": true,
          "internalType": "address",
          "name": "borrower",
          "type": "address"
        }
      ],
      "name": "LoanCancelled",
      "type": "event"
    },
    {
      "anonymous": false,
      "inputs": [
        {
          "indexed": true,
          "internalType": "uint256",
          "name": "loanId",
          "type": "uint256"
        },
        {
          "indexed": true,
          "internalType": "address",
          "name": "borrower",
          "type": "address"
        },
        {
          "indexed": false,
          "internalType": "uint256",
          "name": "amountRequested",
          "type": "uint256"
        }
      ],
      "name": "LoanCreated",
      "type": "event"
    },
    {
      "anonymous": false,
      "inputs": [
        {
          "indexed": true,
          "internalType": "uint256",
          "name": "loanId",
          "type": "uint256"
        },
        {
          "indexed": false,
          "internalType": "uint256",
          "name": "amount",
          "type": "uint256"
        }
      ],
      "name": "RepaymentMade",
      "type": "event"
    },
    {
      "anonymous": false,
      "inputs": [
        {
          "indexed": true,
          "internalType": "uint256",
          "name": "loanId",
          "type": "uint256"
        },
        {
          "indexed": true,
          "internalType": "address",
          "name": "investor",
          "type": "address"
        },
        {
          "indexed": false,
          "internalType": "uint8",
          "name": "score",
          "type": "uint8"
        }
      ],
      "name": "ScoreLeft",
      "type": "event"
    },
    {
      "anonymous": false,
      "inputs": [
        {
          "indexed": true,
          "internalType": "address",
          "name": "owner",
          "type": "address"
        }
      ],
      "name": "TierRequirementsUpdated",
      "type": "event"
    },
    {
      "anonymous": false,
      "inputs": [
        {
          "indexed": true,
          "internalType": "uint256",
          "name": "loanId",
          "type": "uint256"
        },
        {
          "indexed": false,
          "internalType": "uint256",
          "name": "amount",
          "type": "uint256"
        }
      ],
      "name": "WithdrawnByBorrower",
      "type": "event"
    },
    {
      "inputs": [
        {
          "internalType": "address",
          "name": "borrower",
          "type": "address"
        }
      ],
      "name": "averageScoreOfBorrower",
      "outputs": [
        {
          "internalType": "uint256",
          "name": "avgTimes100",
          "type": "uint256"
        }
      ],
      "stateMutability": "view",
      "type": "function"
    },
    {
      "inputs": [
        {
          "internalType": "address",
          "name": "",
          "type": "address"
        }
      ],
      "name": "borrowerProfiles",
      "outputs": [
        {
          "internalType": "uint256",
          "name": "repaidLoansCount",
          "type": "uint256"
        },
        {
          "internalType": "uint256",
          "name": "weightedScoreSum",
          "type": "uint256"
        },
        {
          "internalType": "uint256",
          "name": "totalAmountRepaid",
          "type": "uint256"
        }
      ],
      "stateMutability": "view",
      "type": "function"
    },
    {
      "inputs": [],
      "name": "bronzeLoanLimit",
      "outputs": [
        {
          "internalType": "uint256",
          "name": "",
          "type": "uint256"
        }
      ],
      "stateMutability": "view",
      "type": "function"
    },
    {
      "inputs": [
        {
          "internalType": "uint256",
          "name": "loanId",
          "type": "uint256"
        }
      ],
      "name": "cancelFundedLoan",
      "outputs": [],
      "stateMutability": "nonpayable",
      "type": "function"
    },
    {
      "inputs": [
        {
          "internalType": "uint256",
          "name": "loanId",
          "type": "uint256"
        }
      ],
      "name": "cancelLoan",
      "outputs": [],
      "stateMutability": "nonpayable",
      "type": "function"
    },
    {
      "inputs": [
        {
          "internalType": "uint256",
          "name": "loanId",
          "type": "uint256"
        }
      ],
      "name": "checkDefault",
      "outputs": [],
      "stateMutability": "nonpayable",
      "type": "function"
    },
    {
      "inputs": [
        {
          "internalType": "uint256",
          "name": "loanId",
          "type": "uint256"
        },
        {
          "internalType": "uint8",
          "name": "score",
          "type": "uint8"
        }
      ],
      "name": "claimCollateral",
      "outputs": [],
      "stateMutability": "nonpayable",
      "type": "function"
    },
    {
      "inputs": [
        {
          "internalType": "uint256",
          "name": "amountRequested",
          "type": "uint256"
        },
        {
          "internalType": "uint256",
          "name": "interestBps",
          "type": "uint256"
        },
        {
          "internalType": "uint256",
          "name": "durationSecs",
          "type": "uint256"
        },
        {
          "internalType": "uint256",
          "name": "fundingDeadline",
          "type": "uint256"
        },
        {
          "internalType": "uint256",
          "name": "collateralAmount",
          "type": "uint256"
        }
      ],
      "name": "createLoan",
      "outputs": [
        {
          "internalType": "uint256",
          "name": "loanId",
          "type": "uint256"
        }
      ],
      "stateMutability": "payable",
      "type": "function"
    },
    {
      "inputs": [],
      "name": "feeWallet",
      "outputs": [
        {
          "internalType": "address payable",
          "name": "",
          "type": "address"
        }
      ],
      "stateMutability": "view",
      "type": "function"
    },
    {
      "inputs": [
        {
          "internalType": "uint256",
          "name": "loanId",
          "type": "uint256"
        }
      ],
      "name": "fundLoan",
      "outputs": [],
      "stateMutability": "payable",
      "type": "function"
    },
    {
      "inputs": [
        {
          "internalType": "address",
          "name": "borrower",
          "type": "address"
        }
      ],
      "name": "getBorrowerTier",
      "outputs": [
        {
          "internalType": "enum LoanMarket.RiskTier",
          "name": "",
          "type": "uint8"
        }
      ],
      "stateMutability": "view",
      "type": "function"
    },
    {
      "inputs": [],
      "name": "getLoanCount",
      "outputs": [
        {
          "internalType": "uint256",
          "name": "",
          "type": "uint256"
        }
      ],
      "stateMutability": "view",
      "type": "function"
    },
    {
      "inputs": [],
      "name": "goldReqAvgScorePercent",
      "outputs": [
        {
          "internalType": "uint8",
          "name": "",
          "type": "uint8"
        }
      ],
      "stateMutability": "view",
      "type": "function"
    },
    {
      "inputs": [],
      "name": "goldReqRepaid",
      "outputs": [
        {
          "internalType": "uint8",
          "name": "",
          "type": "uint8"
        }
      ],
      "stateMutability": "view",
      "type": "function"
    },
    {
      "inputs": [
        {
          "internalType": "uint256",
          "name": "",
          "type": "uint256"
        }
      ],
      "name": "loans",
      "outputs": [
        {
          "internalType": "address",
          "name": "borrower",
          "type": "address"
        },
        {
          "internalType": "uint256",
          "name": "amountRequested",
          "type": "uint256"
        },
        {
          "internalType": "uint256",
          "name": "amountFunded",
          "type": "uint256"
        },
        {
          "internalType": "uint256",
          "name": "interestBps",
          "type": "uint256"
        },
        {
          "internalType": "uint256",
          "name": "durationSecs",
          "type": "uint256"
        },
        {
          "internalType": "uint256",
          "name": "fundingDeadline",
          "type": "uint256"
        },
        {
          "internalType": "enum LoanMarket.Status",
          "name": "status",
          "type": "uint8"
        },
        {
          "internalType": "uint256",
          "name": "startTimestamp",
          "type": "uint256"
        },
        {
          "internalType": "uint256",
          "name": "totalRepayment",
          "type": "uint256"
        },
        {
          "internalType": "address",
          "name": "investor",
          "type": "address"
        },
        {
          "internalType": "uint8",
          "name": "score",
          "type": "uint8"
        },
        {
          "internalType": "uint256",
          "name": "defaultTimestamp",
          "type": "uint256"
        },
        {
          "internalType": "uint256",
          "name": "collateralAmount",
          "type": "uint256"
        },
        {
          "internalType": "bool",
          "name": "collateralClaimed",
          "type": "bool"
        }
      ],
      "stateMutability": "view",
      "type": "function"
    },
    {
      "inputs": [],
      "name": "owner",
      "outputs": [
        {
          "internalType": "address",
          "name": "",
          "type": "address"
        }
      ],
      "stateMutability": "view",
      "type": "function"
    },
    {
      "inputs": [
        {
          "internalType": "uint256",
          "name": "loanId",
          "type": "uint256"
        }
      ],
      "name": "repay",
      "outputs": [],
      "stateMutability": "payable",
      "type": "function"
    },
    {
      "inputs": [
        {
          "internalType": "uint256",
          "name": "_bronzeLoanLimit",
          "type": "uint256"
        },
        {
          "internalType": "uint256",
          "name": "_silverLoanLimit",
          "type": "uint256"
        },
        {
          "internalType": "uint8",
          "name": "_silverReqRepaid",
          "type": "uint8"
        },
        {
          "internalType": "uint8",
          "name": "_silverReqAvgScore",
          "type": "uint8"
        },
        {
          "internalType": "uint8",
          "name": "_goldReqRepaid",
          "type": "uint8"
        },
        {
          "internalType": "uint8",
          "name": "_goldReqAvgScore",
          "type": "uint8"
        }
      ],
      "name": "setTierRequirements",
      "outputs": [],
      "stateMutability": "nonpayable",
      "type": "function"
    },
    {
      "inputs": [],
      "name": "silverLoanLimit",
      "outputs": [
        {
          "internalType": "uint256",
          "name": "",
          "type": "uint256"
        }
      ],
      "stateMutability": "view",
      "type": "function"
    },
    {
      "inputs": [],
      "name": "silverReqAvgScorePercent",
      "outputs": [
        {
          "internalType": "uint8",
          "name": "",
          "type": "uint8"
        }
      ],
      "stateMutability": "view",
      "type": "function"
    },
    {
      "inputs": [],
      "name": "silverReqRepaid",
      "outputs": [
        {
          "internalType": "uint8",
          "name": "",
          "type": "uint8"
        }
      ],
      "stateMutability": "view",
      "type": "function"
    },
    {
      "inputs": [
        {
          "internalType": "uint256",
          "name": "loanId",
          "type": "uint256"
        }
      ],
      "name": "withdrawAsBorrower",
      "outputs": [],
      "stateMutability": "nonpayable",
      "type": "function"
    },
    {
      "inputs": [
        {
          "internalType": "uint256",
          "name": "loanId",
          "type": "uint256"
        },
        {
          "internalType": "uint8",
          "name": "score",
          "type": "uint8"
        }
      ],
      "name": "withdrawInvestorShare",
      "outputs": [],
      "stateMutability": "nonpayable",
      "type": "function"
    },
    {
      "inputs": [
        {
          "internalType": "uint256",
          "name": "",
          "type": "uint256"
        }
      ],
      "name": "withdrawableOf",
      "outputs": [
        {
          "internalType": "uint256",
          "name": "",
          "type": "uint256"
        }
      ],
      "stateMutability": "view",
      "type": "function"
    },
    {
      "stateMutability": "payable",
      "type": "receive"
    }
  ],
  "bytecode": "0x6080346200010657601f62001f2338819003918201601f19168301916001600160401b038311848410176200010b5780849260e094604052833981010312620001065780516001600160a01b0381169190829003620001065760ff602082015163ff000000604084015194620000786060860162000121565b95620000876080870162000121565b93620000a460c06200009c60a08a0162000121565b980162000121565b9260018060a01b03198060015416906001600255339060005416176000551760015560035560045561ff0062ff00006005549260101b169660081b169063ffffffff1916179160181b161791161717600555604051611df29081620001318239f35b600080fd5b634e487b7160e01b600052604160045260246000fd5b519060ff82168203620001065756fe608080604052600436101561005f575b50361561001b57600080fd5b606460405162461bcd60e51b815260206004820152602060248201527f5573652066756e644c6f616e286c6f616e49642920746f2073656e64204554486044820152fd5b60003560e01c9081630e1d4753146118a9575080630e3b671c1461179f57806314c2b2e21461178157806331798f611461174a578063371fd8e6146114835780634a86cc8d146114435780634d8a2e15146112bf57806352196812146112a15780635f76cdfd14610f455780636949000c14610ee2578063759135a114610ec4578063846b909a14610d645780638da5cb5b14610d3b5780639f91912414610b97578063a1c2783514610b73578063b7f0b7ee146107c2578063bdbfa3de146106f5578063c88bb8c0146106d1578063cf2b4cbc1461030e578063d1fdb3e8146102e2578063d6f91efd146102c1578063da259955146102a3578063e1ec3c68146101a25763f25f4b5614610174573861000f565b3461019d57600036600319011261019d576001546040516001600160a01b039091168152602090f35b600080fd5b3461019d57602036600319011261019d5760043560075481101561019d576101c9906118da565b5060018060a01b038154166001820154600283015492600381015493600482015460058301549560ff60068501541691600785015497600886015491600987015493600a8801549660ff600c600b8b01549a015416996040519b8c5260208c015260408b015260608a0152608089015260a0880152600683101561028d576101c09760ff9360c089015260e088015261010087015260018060a01b03811661012087015260a01c1661014085015261016084015261018083015215156101a0820152f35b634e487b7160e01b600052602160045260246000fd5b3461019d57600036600319011261019d576020600454604051908152f35b3461019d57600036600319011261019d57602060ff60055416604051908152f35b3461019d57602036600319011261019d5760043560005260086020526020604060002054604051908152f35b60a036600319011261019d5760648035906084359061032c33611cee565b600381101561028d578061067c57506003546004351161063a575b600435156105f857428311156105b65781340361057e5750604051916101c0830183811067ffffffffffffffff821117610568576040523383526004356020840152604083019060008252606084019060243582526080850193604435855260a08601918252600060c0870152600060e0870152600061010087015260006101208701526000610140870152600061016087015261018086015260006101a0860152600754680100000000000000008110156105685780600161040d92016007556118da565b94909461055257855185546001600160a01b03199081166001600160a01b0392831617875560208801516001880155945160028701559251600386015551600485015551600584015560c084015192600680820193919085101561028d576104cf6101a093600c9360ff96871998888a835416911617905560e08901516007850155610100890151600885015560098401916101208a01511690825416178155856101408901511681549060ff60a01b9060a01b169060ff60a01b1916179055565b610160860151600a820155610180860151600b820155019301511515918354169116179055600754600019810190811161053c576020906040516004358152817f8910ba13a55695f056e224bbbc6b65d866b12a8c2fbdf387fb853a1cca298cd7843393a3604051908152f35b634e487b7160e01b600052601160045260246000fd5b634e487b7160e01b600052600060045260246000fd5b634e487b7160e01b600052604160045260246000fd5b60405162461bcd60e51b8152602060048201526013602482015272086ded8d8c2e8cae4c2d840dad2e6dac2e8c6d606b1b6044820152fd5b60405162461bcd60e51b815260206004820152601e60248201527f446561646c696e65206d75737420626520696e207468652066757475726500006044820152fd5b60405162461bcd60e51b815260206004820152601d60248201527f416d6f756e74206d7573742062652067726561746572207468616e20300000006044820152fd5b60405162461bcd60e51b815260206004820152601a60248201527f42726f6e7a652074696572206c696d69742065786365656465640000000000006044820152fd5b6001036103475760045460043511156103475760405162461bcd60e51b815260206004820152601a60248201527f53696c7665722074696572206c696d69742065786365656465640000000000006044820152fd5b3461019d57600036600319011261019d57602060ff60055460081c16604051908152f35b3461019d57602036600319011261019d5760043561071760016002541461196f565b60028055610724816118da565b5080546001600160a01b039190821661073e3382146119bb565b60068201805460ff811690600682101561028d5761075e60059215611938565b60ff1916179055600b820154806107a1575b50505416907f533b2d8d57dc3b3d1c1bfd952e6355a9b573b6b9cccc5f554157003f733bb514600080a36001600255005b6000808080936107bb955af16107b5611a3c565b50611b5b565b8380610770565b3461019d57604036600319011261019d576004356107de6118ca565b906001906107ef826002541461196f565b600280556107fc816118da565b506009810180549092916001600160a01b039161081c9083163314611ba7565b60ff600682015416600681101561028d57600303610b3c578185541615610b02578260005260209160088352604060002054918215610ac757868101928354866000526008865260006040812055808211600014610a815761087e908261192b565b600a810290808204600a149015171561053c57600080806108a46064829504809661192b565b94878d54165af16108b3611a3c565b5015610a4f576108d3600080808085335af16108cd611a3c565b50611be2565b604051908152857f0afeafe87af56d204cca28eefeec305c8d8bcb1907103f969f87e9a978745c29863393a35b60ff8816958787101580610a44575b156109ff5760ff815460a01c166109ba577f7514ebcac1feb55cc5d1869533571ccd5971af19a7428bb57c1f780879eec3d995969798610964919081549060ff60a01b9060a01b169060ff60a01b1916179055565b5416600052600682526109aa60026040600020926109828454611c1c565b845561098f815489611b28565b61099d8a8601918254611a2f565b9055549201918254611a2f565b90556040519384523393a3600255005b60405162461bcd60e51b815260048101869052601b60248201527f53636f72652068617320616c7265616479206265656e206c65667400000000006044820152606490fd5b60405162461bcd60e51b815260048101869052601d60248201527f53636f7265206d757374206265206265747765656e203120616e6420350000006044820152606490fd5b50600587111561090f565b60405162461bcd60e51b815260048101869052600a6024820152691199594819985a5b195960b21b6044820152606490fd5b50610a96600080808085335af16108cd611a3c565b604051908152857f0afeafe87af56d204cca28eefeec305c8d8bcb1907103f969f87e9a978745c29863393a3610900565b60405162461bcd60e51b81526004810185905260136024820152724e6f7468696e6720746f20776974686472617760681b6044820152606490fd5b60405162461bcd60e51b8152602060048201526012602482015271119959481dd85b1b195d081b9bdd081cd95d60721b6044820152606490fd5b60405162461bcd60e51b815260206004820152600f60248201526e131bd85b881b9bdd081c995c185a59608a1b6044820152606490fd5b3461019d57600036600319011261019d57602060ff60055460181c16604051908152f35b3461019d57602036600319011261019d57600435610bb960016002541461196f565b60028055610bc6816118da565b5060098101546001600160a01b0391908216610be3338214611ba7565b600682019081549160ff8316600681101561028d576001610c0491146119f6565b610c176007850154600486015490611a2f565b421115610cdd5760008093928193926005839460ff19161790556002860154905af1610c41611a3c565b5015610c9f57600b81015480610c82575b505416907f533b2d8d57dc3b3d1c1bfd952e6355a9b573b6b9cccc5f554157003f733bb514600080a36001600255005b6000808080610c9994878754165af16107b5611a3c565b83610c52565b60405162461bcd60e51b8152602060048201526016602482015275125b9d995cdd1bdc881c99599d5b990819985a5b195960521b6044820152606490fd5b60405162461bcd60e51b815260206004820152603060248201527f426f72726f7765722773207769746864726177616c20706572696f642068617360448201526f081b9bdd08195e1c1a5c9959081e595d60821b6064820152608490fd5b3461019d57600036600319011261019d576000546040516001600160a01b039091168152602090f35b602036600319011261019d57600435610d7c816118da565b5060068101805460ff8116600681101561028d57610d9a9015611938565b60058301544211610e8d5760018301543403610e575760098301805491906001600160a01b038316610e215760019234600287015533906bffffffffffffffffffffffff60a01b1617905560ff1916179055600742910155604051903482527f38c48552690c96ec2872092ac1db6c19fb59f5a8c5b49bbf41ed4886d0ca692660203393a3005b60405162461bcd60e51b815260206004820152600e60248201526d105b1c9958591e48199d5b99195960921b6044820152606490fd5b60405162461bcd60e51b815260206004820152600e60248201526d135d5cdd08199d5b9908199d5b1b60921b6044820152606490fd5b60405162461bcd60e51b815260206004820152600f60248201526e111958591b1a5b99481c185cdcd959608a1b6044820152606490fd5b3461019d57602036600319011261019d57610ee0600435611a87565b005b3461019d57602036600319011261019d576004356001600160a01b0381169081900361019d57600052600660205260406000208054610f4160026001840154930154604051938493846040919493926060820195825260208201520152565b0390f35b3461019d57604036600319011261019d57600435610f616118ca565b90610f7060016002541461196f565b60028055610f7d81611a87565b610f86816118da565b506009810180546001600160a01b0394919290610fa69086163314611ba7565b60ff600682015416600681101561028d5760040361126c57600c810180549160ff831661123557600b01549182156112005760019060ff19161790556005810281810460050361053c5760649004610ffe818361192b565b9560008080808585600154165af1611014611a3c565b50156111c55760008080808a858a54165af161102e611a3c565b50156111805785917f90a49cc0ffe370f13cdb2e8c2f3f91aeb86bae3a6aa0e060da5fb4a9b91cde999161107e8754996040519384938c1697846040919493926060820195825260208201520152565b0390a360ff811693600185101580611175575b156111305760a01c60ff166110eb57815460ff60a01b191660a09190911b60ff60a01b161790556040519182527f7514ebcac1feb55cc5d1869533571ccd5971af19a7428bb57c1f780879eec3d960203393a36001600255005b60405162461bcd60e51b815260206004820152601b60248201527f53636f72652068617320616c7265616479206265656e206c65667400000000006044820152606490fd5b60405162461bcd60e51b815260206004820152601d60248201527f53636f7265206d757374206265206265747765656e203120616e6420350000006044820152606490fd5b506005851115611091565b60405162461bcd60e51b815260206004820152601860248201527f496e766573746f72207472616e73666572206661696c656400000000000000006044820152606490fd5b60405162461bcd60e51b8152602060048201526013602482015272119959481d1c985b9cd9995c8819985a5b1959606a1b6044820152606490fd5b60405162461bcd60e51b815260206004820152600d60248201526c139bc818dbdb1b185d195c985b609a1b6044820152606490fd5b60405162461bcd60e51b815260206004820152600f60248201526e105b1c9958591e4818db185a5b5959608a1b6044820152606490fd5b60405162461bcd60e51b815260206004820152600d60248201526c139bdd08191959985d5b1d1959609a1b6044820152606490fd5b3461019d57600036600319011261019d576020600754604051908152f35b3461019d57602036600319011261019d5760043560026112e2600182541461196f565b8080556112ee826118da565b509161130460018060a01b0384541633146119bb565b6006830180549360ff8516600681101561028d57600161132491146119f6565b6113376007820154600483015490611a2f565b42116113fe578301549384156113cd5760ff191683179055600080808086335af1611360611a3c565b5015611396577f69ce060f535737417b4a4ebb86ae7a865885c5c1e8106f7ed0b8bd9c52641bc66020600194604051908152a255005b60405162461bcd60e51b815260206004820152600f60248201526e151c985b9cd9995c8819985a5b1959608a1b6044820152606490fd5b60405162461bcd60e51b8152602060048201526009602482015268139bc8185b5bdd5b9d60ba1b6044820152606490fd5b60405162461bcd60e51b815260206004820152601a60248201527f576974686472617720706572696f6420686173207061737365640000000000006044820152606490fd5b3461019d57602036600319011261019d576004356001600160a01b038116810361019d5761147090611cee565b604051600382101561028d576020918152f35b60208060031936011261019d57600435906114a260016002541461196f565b600280556114af826118da565b5080546001600160a01b03906114c890821633146119bb565b600682019060ff825416600681101561028d57600203611710576114f56007840154600485015490611a2f565b42116116cb5761150485611a87565b611524600184015461271061151d600387015483611b28565b0490611a2f565b928334106116995783600882015560ff1992600384825416179055856000526008855283604060002055600b810192835490816115ee575b505050505080341161159a575b907fd3337f372235c0c137836a45251cd21fba324e7ef27c7acc5ac12451491793b991604051908152a26001600255005b60008080806115a9853461192b565b335af16115b4611a3c565b506115695760405162461bcd60e51b815260048101839052600d60248201526c1499599d5b990819985a5b1959609a1b6044820152606490fd5b600c830190815460ff81166116545760008080808c978e9a9760017f7c5e5cb62e5ed3caf3764e4b0afedfedef533e27809d43367799787ad2abcd419b9861163f9816179055335af16107b5611a3c565b54169354604051908152a3838080808061155c565b60405162461bcd60e51b8152600481018a9052601a60248201527f436f6c6c61746572616c20616c72656164792068616e646c65640000000000006044820152606490fd5b60405162461bcd60e51b815260048101869052600a60248201526909cdee840cadcdeeaced60b31b6044820152606490fd5b60405162461bcd60e51b815260048101859052601b60248201527f52657061796d656e7420706572696f64206861732070617373656400000000006044820152606490fd5b60405162461bcd60e51b81526004810185905260126024820152714c6f616e206973206e6f742061637469766560701b6044820152606490fd5b3461019d57602036600319011261019d576004356001600160a01b038116810361019d57611779602091611c2b565b604051908152f35b3461019d57600036600319011261019d576020600354604051908152f35b3461019d5760c036600319011261019d5760443560ff8116810361019d5760643560ff8116810361019d576084359060ff821680920361019d5760a43560ff8116810361019d576000546001600160a01b0316330361185a5763ff0000009060043560035560243560045561ff0062ff00006005549260101b169560081b169063ffffffff1916179160181b16171717600555337fa0c5dab9b76807b86d9a9e4dbbea25e079db4c633b14e9312484433e4de86ff1600080a2005b60405162461bcd60e51b815260206004820152602160248201527f4f6e6c79206f776e65722063616e2063616c6c20746869732066756e6374696f6044820152603760f91b6064820152608490fd5b3461019d57600036600319011261019d5760209060ff60055460101c168152f35b6024359060ff8216820361019d57565b60075481101561191557600d906007600052027fa66cc928b5edb82af9bd49922954155ab7b0942694bea4ce44661d9a8736c6880190600090565b634e487b7160e01b600052603260045260246000fd5b9190820391821161053c57565b1561193f57565b60405162461bcd60e51b81526020600482015260086024820152672737ba1037b832b760c11b6044820152606490fd5b1561197657565b60405162461bcd60e51b815260206004820152601f60248201527f5265656e7472616e637947756172643a207265656e7472616e742063616c6c006044820152606490fd5b156119c257565b60405162461bcd60e51b815260206004820152600c60248201526b2737ba103137b93937bbb2b960a11b6044820152606490fd5b156119fd57565b60405162461bcd60e51b815260206004820152600a602482015269139bdd08199d5b99195960b21b6044820152606490fd5b9190820180921161053c57565b3d15611a825767ffffffffffffffff903d8281116105685760405192601f8201601f19908116603f01168401908111848210176105685760405282523d6000602084013e565b606090565b611a90816118da565b5060068101805460ff8116600681101561028d5760021480611b0d575b80611b01575b611abe575b50505050565b60049060ff1916179055600a429101557f84908fca714735411d4553ddd185a4d6fdc25fda2d15662153ef18a8ad6099b46020604051428152a238808080611ab8565b50600a83015415611ab3565b50611b216007840154600485015490611a2f565b4211611aad565b8181029291811591840414171561053c57565b8115611b45570490565b634e487b7160e01b600052601260045260246000fd5b15611b6257565b60405162461bcd60e51b815260206004820152601860248201527f436f6c6c61746572616c20726566756e64206661696c656400000000000000006044820152606490fd5b15611bae57565b60405162461bcd60e51b815260206004820152600c60248201526b2737ba1034b73b32b9ba37b960a11b6044820152606490fd5b15611be957565b60405162461bcd60e51b815260206004820152600b60248201526a14d95b990819985a5b195960aa1b6044820152606490fd5b600019811461053c5760010190565b600754600091829190825b828110611c6c575050508015611c655760648202918083046064149015171561053c57611c6291611b3b565b90565b5050600090565b611c75816118da565b50546001600160a01b0383811691161480611cd2575b611c9e575b611c9990611c1c565b611c36565b9293611cca611cc4611c999260ff6009611cb7896118da565b50015460a01c1690611a2f565b95611c1c565b939050611c90565b5060ff6009611ce0836118da565b50015460a01c161515611c8b565b6001600160a01b0316600090815260066020526040812080549081158015611db0575b611dab57600181015490601482029180830460141490151715611d975760020154611d3b91611b3b565b6005549160ff831681101580611d88575b611d7f5760ff8360081c1611159182611d6f575b5050611d695790565b50600190565b60181c60ff161090503880611d60565b50505050600290565b5060ff8360101c168211611d4c565b634e487b7160e01b84526011600452602484fd5b505090565b50600281015415611d1156fea2646970667358221220f3a176b964e0c3c4372e197245f99f222f22deb0ae9a6a44124762ca070bb38364736f6c63430008130033",
  "linkReferences": {},
  "deployedLinkReferences": {}
}