{
  "_format": "hh-sol-artifact-1",
  "contractName": "LoanMarket",
  "sourceName": "contracts/Loan.sol",
  "abi": [
    {
      "inputs": [],
      "stateMutability": "nonpayable",
      "type": "constructor"
    },
    {
      "anonymous": false,
      "inputs": [
        {
          "indexed": true,
          "internalType": "uint256",
          "name": "loanId",
          "type": "uint256"
        },
        {
          "indexed": true,
          "internalType": "address",
          "name": "investor",
          "type": "address"
        },
        {
          "indexed": false,
          "internalType": "uint256",
          "name": "grossAmount",
          "type": "uint256"
        },
        {
          "indexed": false,
          "internalType": "uint256",
          "name": "fee",
          "type": "uint256"
        },
        {
          "indexed": false,
          "internalType": "uint256",
          "name": "netAmount",
          "type": "uint256"
        }
      ],
      "name": "CollateralClaimed",
      "type": "event"
    },
    {
      "anonymous": false,
      "inputs": [
        {
          "indexed": true,
          "internalType": "uint256",
          "name": "loanId",
          "type": "uint256"
        },
        {
          "indexed": true,
          "internalType": "address",
          "name": "borrower",
          "type": "address"
        },
        {
          "indexed": false,
          "internalType": "uint256",
          "name": "amount",
          "type": "uint256"
        }
      ],
      "name": "CollateralWithdrawn",
      "type": "event"
    },
    {
      "anonymous": false,
      "inputs": [
        {
          "indexed": true,
          "internalType": "uint256",
          "name": "loanId",
          "type": "uint256"
        },
        {
          "indexed": false,
          "internalType": "uint256",
          "name": "defaultTimestamp",
          "type": "uint256"
        }
      ],
      "name": "Defaulted",
      "type": "event"
    },
    {
      "anonymous": false,
      "inputs": [
        {
          "indexed": true,
          "internalType": "uint256",
          "name": "loanId",
          "type": "uint256"
        },
        {
          "indexed": true,
          "internalType": "address",
          "name": "investor",
          "type": "address"
        },
        {
          "indexed": false,
          "internalType": "uint256",
          "name": "amount",
          "type": "uint256"
        }
      ],
      "name": "Funded",
      "type": "event"
    },
    {
      "anonymous": false,
      "inputs": [
        {
          "indexed": true,
          "internalType": "uint256",
          "name": "loanId",
          "type": "uint256"
        },
        {
          "indexed": true,
          "internalType": "address",
          "name": "investor",
          "type": "address"
        },
        {
          "indexed": false,
          "internalType": "uint256",
          "name": "amount",
          "type": "uint256"
        }
      ],
      "name": "InvestorWithdraw",
      "type": "event"
    },
    {
      "anonymous": false,
      "inputs": [
        {
          "indexed": true,
          "internalType": "uint256",
          "name": "loanId",
          "type": "uint256"
        },
        {
          "indexed": true,
          "internalType": "address",
          "name": "borrower",
          "type": "address"
        }
      ],
      "name": "LoanCancelled",
      "type": "event"
    },
    {
      "anonymous": false,
      "inputs": [
        {
          "indexed": true,
          "internalType": "uint256",
          "name": "loanId",
          "type": "uint256"
        },
        {
          "indexed": true,
          "internalType": "address",
          "name": "borrower",
          "type": "address"
        },
        {
          "indexed": false,
          "internalType": "uint256",
          "name": "amountRequested",
          "type": "uint256"
        }
      ],
      "name": "LoanCreated",
      "type": "event"
    },
    {
      "anonymous": false,
      "inputs": [
        {
          "indexed": true,
          "internalType": "uint256",
          "name": "loanId",
          "type": "uint256"
        },
        {
          "indexed": false,
          "internalType": "uint256",
          "name": "amount",
          "type": "uint256"
        }
      ],
      "name": "RepaymentMade",
      "type": "event"
    },
    {
      "anonymous": false,
      "inputs": [
        {
          "indexed": true,
          "internalType": "uint256",
          "name": "loanId",
          "type": "uint256"
        },
        {
          "indexed": true,
          "internalType": "address",
          "name": "investor",
          "type": "address"
        },
        {
          "indexed": false,
          "internalType": "uint8",
          "name": "score",
          "type": "uint8"
        }
      ],
      "name": "ScoreLeft",
      "type": "event"
    },
    {
      "anonymous": false,
      "inputs": [
        {
          "indexed": true,
          "internalType": "uint256",
          "name": "loanId",
          "type": "uint256"
        },
        {
          "indexed": false,
          "internalType": "uint256",
          "name": "amount",
          "type": "uint256"
        }
      ],
      "name": "WithdrawnByBorrower",
      "type": "event"
    },
    {
      "inputs": [
        {
          "internalType": "address",
          "name": "borrower",
          "type": "address"
        }
      ],
      "name": "averageScoreOfBorrower",
      "outputs": [
        {
          "internalType": "uint256",
          "name": "avgTimes100",
          "type": "uint256"
        }
      ],
      "stateMutability": "view",
      "type": "function"
    },
    {
      "inputs": [
        {
          "internalType": "uint256",
          "name": "loanId",
          "type": "uint256"
        }
      ],
      "name": "cancelFundedLoan",
      "outputs": [],
      "stateMutability": "nonpayable",
      "type": "function"
    },
    {
      "inputs": [
        {
          "internalType": "uint256",
          "name": "loanId",
          "type": "uint256"
        }
      ],
      "name": "cancelLoan",
      "outputs": [],
      "stateMutability": "nonpayable",
      "type": "function"
    },
    {
      "inputs": [
        {
          "internalType": "uint256",
          "name": "loanId",
          "type": "uint256"
        }
      ],
      "name": "checkDefault",
      "outputs": [],
      "stateMutability": "nonpayable",
      "type": "function"
    },
    {
      "inputs": [
        {
          "internalType": "uint256",
          "name": "loanId",
          "type": "uint256"
        },
        {
          "internalType": "uint8",
          "name": "score",
          "type": "uint8"
        }
      ],
      "name": "claimCollateral",
      "outputs": [],
      "stateMutability": "nonpayable",
      "type": "function"
    },
    {
      "inputs": [
        {
          "internalType": "uint256",
          "name": "amountRequested",
          "type": "uint256"
        },
        {
          "internalType": "uint256",
          "name": "interestBps",
          "type": "uint256"
        },
        {
          "internalType": "uint256",
          "name": "durationSecs",
          "type": "uint256"
        },
        {
          "internalType": "uint256",
          "name": "fundingDeadline",
          "type": "uint256"
        },
        {
          "internalType": "uint256",
          "name": "collateralAmount",
          "type": "uint256"
        }
      ],
      "name": "createLoan",
      "outputs": [
        {
          "internalType": "uint256",
          "name": "loanId",
          "type": "uint256"
        }
      ],
      "stateMutability": "payable",
      "type": "function"
    },
    {
      "inputs": [],
      "name": "feeWallet",
      "outputs": [
        {
          "internalType": "address payable",
          "name": "",
          "type": "address"
        }
      ],
      "stateMutability": "view",
      "type": "function"
    },
    {
      "inputs": [
        {
          "internalType": "uint256",
          "name": "loanId",
          "type": "uint256"
        }
      ],
      "name": "fundLoan",
      "outputs": [],
      "stateMutability": "payable",
      "type": "function"
    },
    {
      "inputs": [],
      "name": "getLoanCount",
      "outputs": [
        {
          "internalType": "uint256",
          "name": "",
          "type": "uint256"
        }
      ],
      "stateMutability": "view",
      "type": "function"
    },
    {
      "inputs": [
        {
          "internalType": "uint256",
          "name": "",
          "type": "uint256"
        }
      ],
      "name": "loans",
      "outputs": [
        {
          "internalType": "address",
          "name": "borrower",
          "type": "address"
        },
        {
          "internalType": "uint256",
          "name": "amountRequested",
          "type": "uint256"
        },
        {
          "internalType": "uint256",
          "name": "amountFunded",
          "type": "uint256"
        },
        {
          "internalType": "uint256",
          "name": "interestBps",
          "type": "uint256"
        },
        {
          "internalType": "uint256",
          "name": "durationSecs",
          "type": "uint256"
        },
        {
          "internalType": "uint256",
          "name": "fundingDeadline",
          "type": "uint256"
        },
        {
          "internalType": "enum LoanMarket.Status",
          "name": "status",
          "type": "uint8"
        },
        {
          "internalType": "uint256",
          "name": "startTimestamp",
          "type": "uint256"
        },
        {
          "internalType": "uint256",
          "name": "totalRepayment",
          "type": "uint256"
        },
        {
          "internalType": "address",
          "name": "investor",
          "type": "address"
        },
        {
          "internalType": "uint8",
          "name": "score",
          "type": "uint8"
        },
        {
          "internalType": "uint256",
          "name": "defaultTimestamp",
          "type": "uint256"
        },
        {
          "internalType": "uint256",
          "name": "collateralAmount",
          "type": "uint256"
        },
        {
          "internalType": "bool",
          "name": "collateralClaimed",
          "type": "bool"
        }
      ],
      "stateMutability": "view",
      "type": "function"
    },
    {
      "inputs": [],
      "name": "owner",
      "outputs": [
        {
          "internalType": "address",
          "name": "",
          "type": "address"
        }
      ],
      "stateMutability": "view",
      "type": "function"
    },
    {
      "inputs": [
        {
          "internalType": "uint256",
          "name": "loanId",
          "type": "uint256"
        }
      ],
      "name": "repay",
      "outputs": [],
      "stateMutability": "payable",
      "type": "function"
    },
    {
      "inputs": [
        {
          "internalType": "uint256",
          "name": "loanId",
          "type": "uint256"
        }
      ],
      "name": "withdrawAsBorrower",
      "outputs": [],
      "stateMutability": "nonpayable",
      "type": "function"
    },
    {
      "inputs": [
        {
          "internalType": "uint256",
          "name": "loanId",
          "type": "uint256"
        },
        {
          "internalType": "uint8",
          "name": "score",
          "type": "uint8"
        }
      ],
      "name": "withdrawInvestorShare",
      "outputs": [],
      "stateMutability": "nonpayable",
      "type": "function"
    },
    {
      "inputs": [
        {
          "internalType": "uint256",
          "name": "",
          "type": "uint256"
        }
      ],
      "name": "withdrawableOf",
      "outputs": [
        {
          "internalType": "uint256",
          "name": "",
          "type": "uint256"
        }
      ],
      "stateMutability": "view",
      "type": "function"
    },
    {
      "stateMutability": "payable",
      "type": "receive"
    }
  ],
  "bytecode": "0x6080806040523461004b5760018060a01b0319730fade5b267b572dc1f002d1b9148976ccce9c8c88160015416176001556001600255339060005416176000556117f590816100518239f35b600080fdfe6080604052600436101561005d575b361561001957600080fd5b606460405162461bcd60e51b815260206004820152602060248201527f5573652066756e644c6f616e286c6f616e49642920746f2073656e64204554486044820152fd5b60003560e01c806331798f611461128e578063371fd8e614610fbe5780634d8a2e1514610e3a5780635219681214610e1c5780635f76cdfd14610bd8578063759135a114610bba578063846b909a14610a5a5780638da5cb5b14610a315780639f9191241461088d578063b7f0b7ee1461063c578063bdbfa3de1461056f578063cf2b4cbc14610262578063d1fdb3e814610236578063e1ec3c68146101355763f25f4b560361000e5734610130576000366003190112610130576001546040516001600160a01b039091168152602090f35b600080fd5b34610130576020366003190112610130576004356003548110156101305761015c906112e5565b5060018060a01b038154166001820154600283015492600381015493600482015460058301549560ff60068501541691600785015497600886015491600987015493600a8801549660ff600c600b8b01549a015416996040519b8c5260208c015260408b015260608a0152608089015260a08801526006831015610220576101c09760ff9360c089015260e088015261010087015260018060a01b03811661012087015260a01c1661014085015261016084015261018083015215156101a0820152f35b634e487b7160e01b600052602160045260246000fd5b346101305760203660031901126101305760043560005260046020526020604060002054604051908152f35b60a0366003190112610130576064356084356004351561052a57428211156104e5578034036104aa57604051916101c0830183811067ffffffffffffffff821117610494576040523383526004356020840152604083019060008252606084019060243582526080850193604435855260a08601918252600060c0870152600060e0870152600061010087015260006101208701526000610140870152600061016087015261018086015260006101a0860152600354680100000000000000008110156104945780600161033992016003556112e5565b94909461047e57855185546001600160a01b03199081166001600160a01b0392831617875560208801516001880155945160028701559251600386015551600485015551600584015560c0840151926006808201939190851015610220576103fb6101a093600c9360ff96871998888a835416911617905560e08901516007850155610100890151600885015560098401916101208a01511690825416178155856101408901511681549060ff60a01b9060a01b169060ff60a01b1916179055565b610160860151600a820155610180860151600b8201550193015115159183541691161790556003546000198101908111610468576020906040516004358152817f8910ba13a55695f056e224bbbc6b65d866b12a8c2fbdf387fb853a1cca298cd7843393a3604051908152f35b634e487b7160e01b600052601160045260246000fd5b634e487b7160e01b600052600060045260246000fd5b634e487b7160e01b600052604160045260246000fd5b60405162461bcd60e51b8152602060048201526013602482015272086ded8d8c2e8cae4c2d840dad2e6dac2e8c6d606b1b6044820152606490fd5b60405162461bcd60e51b815260206004820152601e60248201527f446561646c696e65206d75737420626520696e207468652066757475726500006044820152606490fd5b60405162461bcd60e51b815260206004820152601d60248201527f416d6f756e74206d7573742062652067726561746572207468616e20300000006044820152606490fd5b346101305760203660031901126101305760043561059160016002541461137a565b6002805561059e816112e5565b5080546001600160a01b03919082166105b83382146113c6565b60068201805460ff8116906006821015610220576105d860059215611343565b60ff1916179055600b8201548061061b575b50505416907f533b2d8d57dc3b3d1c1bfd952e6355a9b573b6b9cccc5f554157003f733bb514600080a36001600255005b600080808093610635955af161062f611447565b50611533565b83806105ea565b346101305761064a366112c5565b61065860016002541461137a565b60028055610665826112e5565b5060098101546001600160a01b03939190610683908516331461157f565b60ff6006820154166006811015610220576003036108565783600154161561081c57816000526020936004855260406000205480156107e15760018301546000858152600488526040812055808211156107a4576106e19082611336565b600a810290808204600a149015171561046857600080809361070860648395048092611336565b95600154165af1610717611447565b501561077257827f0afeafe87af56d204cca28eefeec305c8d8bcb1907103f969f87e9a978745c2961076b9661075d600080808088335af1610757611447565b506115ba565b6040519384523393a36115f4565b6001600255005b60405162461bcd60e51b815260048101869052600a6024820152691199594819985a5b195960b21b6044820152606490fd5b509050827f0afeafe87af56d204cca28eefeec305c8d8bcb1907103f969f87e9a978745c2961076b9661075d600080808088335af1610757611447565b60405162461bcd60e51b81526004810187905260136024820152724e6f7468696e6720746f20776974686472617760681b6044820152606490fd5b60405162461bcd60e51b8152602060048201526012602482015271119959481dd85b1b195d081b9bdd081cd95d60721b6044820152606490fd5b60405162461bcd60e51b815260206004820152600f60248201526e131bd85b881b9bdd081c995c185a59608a1b6044820152606490fd5b34610130576020366003190112610130576004356108af60016002541461137a565b600280556108bc816112e5565b5060098101546001600160a01b03919082166108d933821461157f565b600682019081549160ff831660068110156102205760016108fa9114611401565b61090d600785015460048601549061143a565b4211156109d35760008093928193926005839460ff19161790556002860154905af1610937611447565b501561099557600b81015480610978575b505416907f533b2d8d57dc3b3d1c1bfd952e6355a9b573b6b9cccc5f554157003f733bb514600080a36001600255005b600080808061098f94878754165af161062f611447565b83610948565b60405162461bcd60e51b8152602060048201526016602482015275125b9d995cdd1bdc881c99599d5b990819985a5b195960521b6044820152606490fd5b60405162461bcd60e51b815260206004820152603060248201527f426f72726f7765722773207769746864726177616c20706572696f642068617360448201526f081b9bdd08195e1c1a5c9959081e595d60821b6064820152608490fd5b34610130576000366003190112610130576000546040516001600160a01b039091168152602090f35b602036600319011261013057600435610a72816112e5565b5060068101805460ff8116600681101561022057610a909015611343565b60058301544211610b835760018301543403610b4d5760098301805491906001600160a01b038316610b175760019234600287015533906bffffffffffffffffffffffff60a01b1617905560ff1916179055600742910155604051903482527f38c48552690c96ec2872092ac1db6c19fb59f5a8c5b49bbf41ed4886d0ca692660203393a3005b60405162461bcd60e51b815260206004820152600e60248201526d105b1c9958591e48199d5b99195960921b6044820152606490fd5b60405162461bcd60e51b815260206004820152600e60248201526d135d5cdd08199d5b9908199d5b1b60921b6044820152606490fd5b60405162461bcd60e51b815260206004820152600f60248201526e111958591b1a5b99481c185cdcd959608a1b6044820152606490fd5b3461013057602036600319011261013057610bd6600435611492565b005b3461013057610be6366112c5565b610bf460016002541461137a565b60028055610c0182611492565b610c0a826112e5565b5091600983019260018060a01b03610c2681865416331461157f565b60ff600683015416600681101561022057600403610de757600c82019485549560ff8716610db057600b840154968715610d7b5760019060ff1916179055600a8602868104600a03610468576064900491610c818388611336565b9160008080808786600154165af1610c97611447565b5015610d4057600080808086868654165af1610cb1611447565b5015610cfb5761076b9786937f90a49cc0ffe370f13cdb2e8c2f3f91aeb86bae3a6aa0e060da5fb4a9b91cde999360609354169560405192835260208301526040820152a36115f4565b60405162461bcd60e51b815260206004820152601860248201527f496e766573746f72207472616e73666572206661696c656400000000000000006044820152606490fd5b60405162461bcd60e51b8152602060048201526013602482015272119959481d1c985b9cd9995c8819985a5b1959606a1b6044820152606490fd5b60405162461bcd60e51b815260206004820152600d60248201526c139bc818dbdb1b185d195c985b609a1b6044820152606490fd5b60405162461bcd60e51b815260206004820152600f60248201526e105b1c9958591e4818db185a5b5959608a1b6044820152606490fd5b60405162461bcd60e51b815260206004820152600d60248201526c139bdd08191959985d5b1d1959609a1b6044820152606490fd5b34610130576000366003190112610130576020600354604051908152f35b34610130576020366003190112610130576004356002610e5d600182541461137a565b808055610e69826112e5565b5091610e7f60018060a01b0384541633146113c6565b6006830180549360ff85166006811015610220576001610e9f9114611401565b610eb2600782015460048301549061143a565b4211610f7957830154938415610f485760ff191683179055600080808086335af1610edb611447565b5015610f11577f69ce060f535737417b4a4ebb86ae7a865885c5c1e8106f7ed0b8bd9c52641bc66020600194604051908152a255005b60405162461bcd60e51b815260206004820152600f60248201526e151c985b9cd9995c8819985a5b1959608a1b6044820152606490fd5b60405162461bcd60e51b8152602060048201526009602482015268139bc8185b5bdd5b9d60ba1b6044820152606490fd5b60405162461bcd60e51b815260206004820152601a60248201527f576974686472617720706572696f6420686173207061737365640000000000006044820152606490fd5b6020806003193601126101305760043590610fdd60016002541461137a565b60028055610fea826112e5565b5080546001600160a01b039061100390821633146113c6565b600682019060ff82541660068110156102205760020361125457611030600784015460048501549061143a565b421161120f5761103f85611492565b60018301546003840154908181029181830414811517156104685761271061106892049061143a565b928334106111dd5783600882015560ff1992600384825416179055856000526004855283604060002055600b81019283549081611132575b50505050508034116110de575b907fd3337f372235c0c137836a45251cd21fba324e7ef27c7acc5ac12451491793b991604051908152a26001600255005b60008080806110ed8534611336565b335af16110f8611447565b506110ad5760405162461bcd60e51b815260048101839052600d60248201526c1499599d5b990819985a5b1959609a1b6044820152606490fd5b600c830190815460ff81166111985760008080808c978e9a9760017f7c5e5cb62e5ed3caf3764e4b0afedfedef533e27809d43367799787ad2abcd419b986111839816179055335af161062f611447565b54169354604051908152a383808080806110a0565b60405162461bcd60e51b8152600481018a9052601a60248201527f436f6c6c61746572616c20616c72656164792068616e646c65640000000000006044820152606490fd5b60405162461bcd60e51b815260048101869052600a60248201526909cdee840cadcdeeaced60b31b6044820152606490fd5b60405162461bcd60e51b815260048101859052601b60248201527f52657061796d656e7420706572696f64206861732070617373656400000000006044820152606490fd5b60405162461bcd60e51b81526004810185905260126024820152714c6f616e206973206e6f742061637469766560701b6044820152606490fd5b34610130576020366003190112610130576004356001600160a01b0381168103610130576112bd602091611704565b604051908152f35b6040906003190112610130576004359060243560ff811681036101305790565b60035481101561132057600d906003600052027fc2575a0e9e593c00f959f8c92f12db2869c3395a3b0502d05e2516446f71f85b0190600090565b634e487b7160e01b600052603260045260246000fd5b9190820391821161046857565b1561134a57565b60405162461bcd60e51b81526020600482015260086024820152672737ba1037b832b760c11b6044820152606490fd5b1561138157565b60405162461bcd60e51b815260206004820152601f60248201527f5265656e7472616e637947756172643a207265656e7472616e742063616c6c006044820152606490fd5b156113cd57565b60405162461bcd60e51b815260206004820152600c60248201526b2737ba103137b93937bbb2b960a11b6044820152606490fd5b1561140857565b60405162461bcd60e51b815260206004820152600a602482015269139bdd08199d5b99195960b21b6044820152606490fd5b9190820180921161046857565b3d1561148d5767ffffffffffffffff903d8281116104945760405192601f8201601f19908116603f01168401908111848210176104945760405282523d6000602084013e565b606090565b61149b816112e5565b5060068101805460ff811660068110156102205760021480611518575b8061150c575b6114c9575b50505050565b60049060ff1916179055600a429101557f84908fca714735411d4553ddd185a4d6fdc25fda2d15662153ef18a8ad6099b46020604051428152a2388080806114c3565b50600a830154156114be565b5061152c600784015460048501549061143a565b42116114b8565b1561153a57565b60405162461bcd60e51b815260206004820152601860248201527f436f6c6c61746572616c20726566756e64206661696c656400000000000000006044820152606490fd5b1561158657565b60405162461bcd60e51b815260206004820152600c60248201526b2737ba1034b73b32b9ba37b960a11b6044820152606490fd5b156115c157565b60405162461bcd60e51b815260206004820152600b60248201526a14d95b990819985a5b195960aa1b6044820152606490fd5b9160ff8116926001841015806116ea575b156116a5576009019060ff825460a01c1661166057815460ff60a01b191660a09190911b60ff60a01b161790556040519182527f7514ebcac1feb55cc5d1869533571ccd5971af19a7428bb57c1f780879eec3d960203393a3565b60405162461bcd60e51b815260206004820152601b60248201527f53636f72652068617320616c7265616479206265656e206c65667400000000006044820152606490fd5b60405162461bcd60e51b815260206004820152601d60248201527f53636f7265206d757374206265206265747765656e203120616e6420350000006044820152606490fd5b506005841115611605565b60001981146104685760010190565b600080918190600354915b82811061173d57505050811561173657606481029080820460641490151715610468570490565b5050600090565b611746816112e5565b50546001600160a01b03838116911614806117a3575b61176f575b61176a906116f5565b61170f565b939261179b61179561176a9260ff60096117888a6112e5565b50015460a01c169061143a565b946116f5565b949050611761565b5060ff60096117b1836112e5565b50015460a01c16151561175c56fea2646970667358221220e00bd0d597ce7e4260a853fc0ef4b884b867f3fa4a80e9e68b63320a4eac041864736f6c63430008130033",
  "linkReferences": {},
  "deployedLinkReferences": {}
}